{
  "_format": "hh-sol-artifact-1",
  "contractName": "DelegationAwareAToken",
  "sourceName": "contracts/protocol/tokenization/DelegationAwareAToken.sol",
  "abi": [
    {
      "anonymous": false,
      "inputs": [
        {
          "indexed": true,
          "internalType": "address",
          "name": "owner",
          "type": "address"
        },
        {
          "indexed": true,
          "internalType": "address",
          "name": "spender",
          "type": "address"
        },
        {
          "indexed": false,
          "internalType": "uint256",
          "name": "value",
          "type": "uint256"
        }
      ],
      "name": "Approval",
      "type": "event"
    },
    {
      "anonymous": false,
      "inputs": [
        {
          "indexed": true,
          "internalType": "address",
          "name": "from",
          "type": "address"
        },
        {
          "indexed": true,
          "internalType": "address",
          "name": "to",
          "type": "address"
        },
        {
          "indexed": false,
          "internalType": "uint256",
          "name": "value",
          "type": "uint256"
        },
        {
          "indexed": false,
          "internalType": "uint256",
          "name": "index",
          "type": "uint256"
        }
      ],
      "name": "BalanceTransfer",
      "type": "event"
    },
    {
      "anonymous": false,
      "inputs": [
        {
          "indexed": true,
          "internalType": "address",
          "name": "from",
          "type": "address"
        },
        {
          "indexed": true,
          "internalType": "address",
          "name": "target",
          "type": "address"
        },
        {
          "indexed": false,
          "internalType": "uint256",
          "name": "value",
          "type": "uint256"
        },
        {
          "indexed": false,
          "internalType": "uint256",
          "name": "index",
          "type": "uint256"
        }
      ],
      "name": "Burn",
      "type": "event"
    },
    {
      "anonymous": false,
      "inputs": [
        {
          "indexed": true,
          "internalType": "address",
          "name": "underlyingAsset",
          "type": "address"
        },
        {
          "indexed": true,
          "internalType": "address",
          "name": "pool",
          "type": "address"
        },
        {
          "indexed": false,
          "internalType": "address",
          "name": "treasury",
          "type": "address"
        },
        {
          "indexed": false,
          "internalType": "address",
          "name": "incentivesController",
          "type": "address"
        },
        {
          "indexed": false,
          "internalType": "uint8",
          "name": "aTokenDecimals",
          "type": "uint8"
        },
        {
          "indexed": false,
          "internalType": "string",
          "name": "aTokenName",
          "type": "string"
        },
        {
          "indexed": false,
          "internalType": "string",
          "name": "aTokenSymbol",
          "type": "string"
        },
        {
          "indexed": false,
          "internalType": "bytes",
          "name": "params",
          "type": "bytes"
        }
      ],
      "name": "Initialized",
      "type": "event"
    },
    {
      "anonymous": false,
      "inputs": [
        {
          "indexed": true,
          "internalType": "address",
          "name": "from",
          "type": "address"
        },
        {
          "indexed": false,
          "internalType": "uint256",
          "name": "value",
          "type": "uint256"
        },
        {
          "indexed": false,
          "internalType": "uint256",
          "name": "index",
          "type": "uint256"
        }
      ],
      "name": "Mint",
      "type": "event"
    },
    {
      "anonymous": false,
      "inputs": [
        {
          "indexed": true,
          "internalType": "address",
          "name": "from",
          "type": "address"
        },
        {
          "indexed": true,
          "internalType": "address",
          "name": "to",
          "type": "address"
        },
        {
          "indexed": false,
          "internalType": "uint256",
          "name": "value",
          "type": "uint256"
        }
      ],
      "name": "Transfer",
      "type": "event"
    },
    {
      "inputs": [],
      "name": "ATOKEN_REVISION",
      "outputs": [
        {
          "internalType": "uint256",
          "name": "",
          "type": "uint256"
        }
      ],
      "stateMutability": "view",
      "type": "function"
    },
    {
      "inputs": [],
      "name": "DOMAIN_SEPARATOR",
      "outputs": [
        {
          "internalType": "bytes32",
          "name": "",
          "type": "bytes32"
        }
      ],
      "stateMutability": "view",
      "type": "function"
    },
    {
      "inputs": [],
      "name": "EIP712_REVISION",
      "outputs": [
        {
          "internalType": "bytes",
          "name": "",
          "type": "bytes"
        }
      ],
      "stateMutability": "view",
      "type": "function"
    },
    {
      "inputs": [],
      "name": "PERMIT_TYPEHASH",
      "outputs": [
        {
          "internalType": "bytes32",
          "name": "",
          "type": "bytes32"
        }
      ],
      "stateMutability": "view",
      "type": "function"
    },
    {
      "inputs": [],
      "name": "POOL",
      "outputs": [
        {
          "internalType": "contract ILendingPool",
          "name": "",
          "type": "address"
        }
      ],
      "stateMutability": "view",
      "type": "function"
    },
    {
      "inputs": [],
      "name": "RESERVE_TREASURY_ADDRESS",
      "outputs": [
        {
          "internalType": "address",
          "name": "",
          "type": "address"
        }
      ],
      "stateMutability": "view",
      "type": "function"
    },
    {
      "inputs": [],
      "name": "UNDERLYING_ASSET_ADDRESS",
      "outputs": [
        {
          "internalType": "address",
          "name": "",
          "type": "address"
        }
      ],
      "stateMutability": "view",
      "type": "function"
    },
    {
      "inputs": [
        {
          "internalType": "address",
          "name": "",
          "type": "address"
        }
      ],
      "name": "_nonces",
      "outputs": [
        {
          "internalType": "uint256",
          "name": "",
          "type": "uint256"
        }
      ],
      "stateMutability": "view",
      "type": "function"
    },
    {
      "inputs": [
        {
          "internalType": "address",
          "name": "owner",
          "type": "address"
        },
        {
          "internalType": "address",
          "name": "spender",
          "type": "address"
        }
      ],
      "name": "allowance",
      "outputs": [
        {
          "internalType": "uint256",
          "name": "",
          "type": "uint256"
        }
      ],
      "stateMutability": "view",
      "type": "function"
    },
    {
      "inputs": [
        {
          "internalType": "address",
          "name": "spender",
          "type": "address"
        },
        {
          "internalType": "uint256",
          "name": "amount",
          "type": "uint256"
        }
      ],
      "name": "approve",
      "outputs": [
        {
          "internalType": "bool",
          "name": "",
          "type": "bool"
        }
      ],
      "stateMutability": "nonpayable",
      "type": "function"
    },
    {
      "inputs": [
        {
          "internalType": "address",
          "name": "user",
          "type": "address"
        }
      ],
      "name": "balanceOf",
      "outputs": [
        {
          "internalType": "uint256",
          "name": "",
          "type": "uint256"
        }
      ],
      "stateMutability": "view",
      "type": "function"
    },
    {
      "inputs": [
        {
          "internalType": "address",
          "name": "user",
          "type": "address"
        },
        {
          "internalType": "address",
          "name": "receiverOfUnderlying",
          "type": "address"
        },
        {
          "internalType": "uint256",
          "name": "amount",
          "type": "uint256"
        },
        {
          "internalType": "uint256",
          "name": "index",
          "type": "uint256"
        }
      ],
      "name": "burn",
      "outputs": [],
      "stateMutability": "nonpayable",
      "type": "function"
    },
    {
      "inputs": [],
      "name": "decimals",
      "outputs": [
        {
          "internalType": "uint8",
          "name": "",
          "type": "uint8"
        }
      ],
      "stateMutability": "view",
      "type": "function"
    },
    {
      "inputs": [
        {
          "internalType": "address",
          "name": "spender",
          "type": "address"
        },
        {
          "internalType": "uint256",
          "name": "subtractedValue",
          "type": "uint256"
        }
      ],
      "name": "decreaseAllowance",
      "outputs": [
        {
          "internalType": "bool",
          "name": "",
          "type": "bool"
        }
      ],
      "stateMutability": "nonpayable",
      "type": "function"
    },
    {
      "inputs": [
        {
          "internalType": "address",
          "name": "delegatee",
          "type": "address"
        }
      ],
      "name": "delegateUnderlyingTo",
      "outputs": [],
      "stateMutability": "nonpayable",
      "type": "function"
    },
    {
      "inputs": [],
      "name": "getIncentivesController",
      "outputs": [
        {
          "internalType": "contract IAaveIncentivesController",
          "name": "",
          "type": "address"
        }
      ],
      "stateMutability": "view",
      "type": "function"
    },
    {
      "inputs": [
        {
          "internalType": "address",
          "name": "user",
          "type": "address"
        }
      ],
      "name": "getScaledUserBalanceAndSupply",
      "outputs": [
        {
          "internalType": "uint256",
          "name": "",
          "type": "uint256"
        },
        {
          "internalType": "uint256",
          "name": "",
          "type": "uint256"
        }
      ],
      "stateMutability": "view",
      "type": "function"
    },
    {
      "inputs": [
        {
          "internalType": "address",
          "name": "user",
          "type": "address"
        },
        {
          "internalType": "uint256",
          "name": "amount",
          "type": "uint256"
        }
      ],
      "name": "handleRepayment",
      "outputs": [],
      "stateMutability": "nonpayable",
      "type": "function"
    },
    {
      "inputs": [
        {
          "internalType": "address",
          "name": "spender",
          "type": "address"
        },
        {
          "internalType": "uint256",
          "name": "addedValue",
          "type": "uint256"
        }
      ],
      "name": "increaseAllowance",
      "outputs": [
        {
          "internalType": "bool",
          "name": "",
          "type": "bool"
        }
      ],
      "stateMutability": "nonpayable",
      "type": "function"
    },
    {
      "inputs": [
        {
          "internalType": "contract ILendingPool",
          "name": "pool",
          "type": "address"
        },
        {
          "internalType": "address",
          "name": "treasury",
          "type": "address"
        },
        {
          "internalType": "address",
          "name": "underlyingAsset",
          "type": "address"
        },
        {
          "internalType": "contract IAaveIncentivesController",
          "name": "incentivesController",
          "type": "address"
        },
        {
          "internalType": "uint8",
          "name": "aTokenDecimals",
          "type": "uint8"
        },
        {
          "internalType": "string",
          "name": "aTokenName",
          "type": "string"
        },
        {
          "internalType": "string",
          "name": "aTokenSymbol",
          "type": "string"
        },
        {
          "internalType": "bytes",
          "name": "params",
          "type": "bytes"
        }
      ],
      "name": "initialize",
      "outputs": [],
      "stateMutability": "nonpayable",
      "type": "function"
    },
    {
      "inputs": [
        {
          "internalType": "address",
          "name": "user",
          "type": "address"
        },
        {
          "internalType": "uint256",
          "name": "amount",
          "type": "uint256"
        },
        {
          "internalType": "uint256",
          "name": "index",
          "type": "uint256"
        }
      ],
      "name": "mint",
      "outputs": [
        {
          "internalType": "bool",
          "name": "",
          "type": "bool"
        }
      ],
      "stateMutability": "nonpayable",
      "type": "function"
    },
    {
      "inputs": [
        {
          "internalType": "uint256",
          "name": "amount",
          "type": "uint256"
        },
        {
          "internalType": "uint256",
          "name": "index",
          "type": "uint256"
        }
      ],
      "name": "mintToTreasury",
      "outputs": [],
      "stateMutability": "nonpayable",
      "type": "function"
    },
    {
      "inputs": [],
      "name": "name",
      "outputs": [
        {
          "internalType": "string",
          "name": "",
          "type": "string"
        }
      ],
      "stateMutability": "view",
      "type": "function"
    },
    {
      "inputs": [
        {
          "internalType": "address",
          "name": "owner",
          "type": "address"
        },
        {
          "internalType": "address",
          "name": "spender",
          "type": "address"
        },
        {
          "internalType": "uint256",
          "name": "value",
          "type": "uint256"
        },
        {
          "internalType": "uint256",
          "name": "deadline",
          "type": "uint256"
        },
        {
          "internalType": "uint8",
          "name": "v",
          "type": "uint8"
        },
        {
          "internalType": "bytes32",
          "name": "r",
          "type": "bytes32"
        },
        {
          "internalType": "bytes32",
          "name": "s",
          "type": "bytes32"
        }
      ],
      "name": "permit",
      "outputs": [],
      "stateMutability": "nonpayable",
      "type": "function"
    },
    {
      "inputs": [
        {
          "internalType": "address",
          "name": "user",
          "type": "address"
        }
      ],
      "name": "scaledBalanceOf",
      "outputs": [
        {
          "internalType": "uint256",
          "name": "",
          "type": "uint256"
        }
      ],
      "stateMutability": "view",
      "type": "function"
    },
    {
      "inputs": [],
      "name": "scaledTotalSupply",
      "outputs": [
        {
          "internalType": "uint256",
          "name": "",
          "type": "uint256"
        }
      ],
      "stateMutability": "view",
      "type": "function"
    },
    {
      "inputs": [],
      "name": "symbol",
      "outputs": [
        {
          "internalType": "string",
          "name": "",
          "type": "string"
        }
      ],
      "stateMutability": "view",
      "type": "function"
    },
    {
      "inputs": [],
      "name": "totalSupply",
      "outputs": [
        {
          "internalType": "uint256",
          "name": "",
          "type": "uint256"
        }
      ],
      "stateMutability": "view",
      "type": "function"
    },
    {
      "inputs": [
        {
          "internalType": "address",
          "name": "recipient",
          "type": "address"
        },
        {
          "internalType": "uint256",
          "name": "amount",
          "type": "uint256"
        }
      ],
      "name": "transfer",
      "outputs": [
        {
          "internalType": "bool",
          "name": "",
          "type": "bool"
        }
      ],
      "stateMutability": "nonpayable",
      "type": "function"
    },
    {
      "inputs": [
        {
          "internalType": "address",
          "name": "sender",
          "type": "address"
        },
        {
          "internalType": "address",
          "name": "recipient",
          "type": "address"
        },
        {
          "internalType": "uint256",
          "name": "amount",
          "type": "uint256"
        }
      ],
      "name": "transferFrom",
      "outputs": [
        {
          "internalType": "bool",
          "name": "",
          "type": "bool"
        }
      ],
      "stateMutability": "nonpayable",
      "type": "function"
    },
    {
      "inputs": [
        {
          "internalType": "address",
          "name": "from",
          "type": "address"
        },
        {
          "internalType": "address",
          "name": "to",
          "type": "address"
        },
        {
          "internalType": "uint256",
          "name": "value",
          "type": "uint256"
        }
      ],
      "name": "transferOnLiquidation",
      "outputs": [],
      "stateMutability": "nonpayable",
      "type": "function"
    },
    {
      "inputs": [
        {
          "internalType": "address",
          "name": "target",
          "type": "address"
        },
        {
          "internalType": "uint256",
          "name": "amount",
          "type": "uint256"
        }
      ],
      "name": "transferUnderlyingTo",
      "outputs": [
        {
          "internalType": "uint256",
          "name": "",
          "type": "uint256"
        }
      ],
      "stateMutability": "nonpayable",
      "type": "function"
    }
  ],
  "bytecode": "0x6080604052600080553480156200001557600080fd5b50604080518082018252600b8082526a105513d2d15397d253541360aa1b60208084018281528551808701909652928552840152815191929160009162000060916037919062000094565b5081516200007690603890602085019062000094565b506039805460ff191660ff9290921691909117905550620001309050565b828054600181600116156101000203166002900490600052602060002090601f016020900481019282601f10620000d757805160ff191683800117855562000107565b8280016001018555821562000107579182015b8281111562000107578251825591602001919060010190620000ea565b506200011592915062000119565b5090565b5b808211156200011557600081556001016200011a565b6129e080620001406000396000f3fe608060405234801561001057600080fd5b50600436106101b05760003560e01c80637535d246116100ef578063ae16733511610092578063ae16733514610657578063b16a19de1461065f578063b1bf962d14610667578063b9844d8d1461066f578063d505accf14610695578063d7020d0a146106e6578063dd62ed3e14610722578063f866c31914610750576101b0565b80637535d2461461057457806375d264131461059857806378160376146105a05780637df5bd3b146105a857806388dd91a1146105cb57806395d89b41146105f7578063a457c2d7146105ff578063a9059cbb1461062b576101b0565b806323b872dd1161015757806323b872dd1461046c5780632f114618146104a257806330adf81f146104c8578063313ce567146104d05780633644e515146104ee57806339509351146104f65780634efecaa51461052257806370a082311461054e576101b0565b806306fdde03146101b5578063095ea7b3146102325780630afbcdc9146102725780630bd7ad3b146102b1578063156e29f6146102cb57806318160ddd146102fd578063183fb413146103055780631da24f3e14610446575b600080fd5b6101bd610786565b6040805160208082528351818301528351919283929083019185019080838360005b838110156101f75781810151838201526020016101df565b50505050905090810190601f1680156102245780820380516001836020036101000a031916815260200191505b509250505060405180910390f35b61025e6004803603604081101561024857600080fd5b506001600160a01b03813516906020013561081d565b604080519115158252519081900360200190f35b6102986004803603602081101561028857600080fd5b50356001600160a01b031661083b565b6040805192835260208301919091528051918290030190f35b6102b9610858565b60408051918252519081900360200190f35b61025e600480360360608110156102e157600080fd5b506001600160a01b03813516906020810135906040013561085d565b6102b9610a2b565b610444600480360361010081101561031c57600080fd5b6001600160a01b038235811692602081013582169260408201358316926060830135169160ff6080820135169181019060c0810160a0820135600160201b81111561036657600080fd5b82018360208201111561037857600080fd5b803590602001918460018302840111600160201b8311171561039957600080fd5b919390929091602081019035600160201b8111156103b657600080fd5b8201836020820111156103c857600080fd5b803590602001918460018302840111600160201b831117156103e957600080fd5b919390929091602081019035600160201b81111561040657600080fd5b82018360208201111561041857600080fd5b803590602001918460018302840111600160201b8311171561043957600080fd5b509092509050610ad5565b005b6102b96004803603602081101561045c57600080fd5b50356001600160a01b0316610e52565b61025e6004803603606081101561048257600080fd5b506001600160a01b03813581169160208101359091169060400135610e5d565b610444600480360360208110156104b857600080fd5b50356001600160a01b0316610f1d565b6102b96110f1565b6104d8611115565b6040805160ff9092168252519081900360200190f35b6102b961111e565b61025e6004803603604081101561050c57600080fd5b506001600160a01b038135169060200135611124565b6102b96004803603604081101561053857600080fd5b506001600160a01b038135169060200135611172565b6102b96004803603602081101561056457600080fd5b50356001600160a01b0316611218565b61057c6112a7565b604080516001600160a01b039092168252519081900360200190f35b61057c6112b6565b6101bd6112c5565b610444600480360360408110156105be57600080fd5b50803590602001356112e2565b610444600480360360408110156105e157600080fd5b506001600160a01b038135169060200135611409565b6101bd611493565b61025e6004803603604081101561061557600080fd5b506001600160a01b0381351690602001356114f4565b61025e6004803603604081101561064157600080fd5b506001600160a01b03813516906020013561155c565b61057c6115b9565b61057c6115c8565b6102b96115d7565b6102b96004803603602081101561068557600080fd5b50356001600160a01b03166115e1565b610444600480360360e08110156106ab57600080fd5b506001600160a01b03813581169160208101359091169060408101359060608101359060ff6080820135169060a08101359060c001356115f3565b610444600480360360808110156106fc57600080fd5b506001600160a01b0381358116916020810135909116906040810135906060013561183a565b6102b96004803603604081101561073857600080fd5b506001600160a01b03813581169160200135166119df565b6104446004803603606081101561076657600080fd5b506001600160a01b03813581169160208101359091169060400135611a0a565b60378054604080516020601f60026000196101006001881615020190951694909404938401819004810282018101909252828152606093909290918301828280156108125780601f106107e757610100808354040283529160200191610812565b820191906000526020600020905b8154815290600101906020018083116107f557829003601f168201915b505050505090505b90565b600061083161082a611adb565b8484611adf565b5060015b92915050565b60008061084783611bcb565b61084f611be6565b91509150915091565b600181565b603c546000906001600160a01b0316610874611adb565b6001600160a01b03161460405180604001604052806002815260200161323960f01b815250906109225760405162461bcd60e51b81526004018080602001828103825283818151815260200191508051906020019080838360005b838110156108e75781810151838201526020016108cf565b50505050905090810190601f1680156109145780820380516001836020036101000a031916815260200191505b509250505060405180910390fd5b50600061092e85611bcb565b9050600061093c8585611bec565b6040805180820190915260028152611a9b60f11b6020820152909150816109a45760405162461bcd60e51b81526020600482018181528351602484015283519092839260449091019190850190808383600083156108e75781810151838201526020016108cf565b506109af8682611cf3565b6040805186815290516001600160a01b038816916000916000805160206128d28339815191529181900360200190a3604080518681526020810186905281516001600160a01b038916927f4c209b5fc8ad50758f13e2e1088ba56a560dff690a1c6fef26394f4c03821c4f928290030190a25015949350505050565b600080610a36611be6565b905080610a4757600091505061081a565b603c54603e546040805163d15e005360e01b81526001600160a01b0392831660048201529051610acf93929092169163d15e005391602480820192602092909190829003018186803b158015610a9c57600080fd5b505afa158015610ab0573d6000803e3d6000fd5b505050506040513d6020811015610ac657600080fd5b50518290611e44565b91505090565b6000610adf611f02565b60015490915060ff1680610af65750610af6611f07565b80610b02575060005481115b610b3d5760405162461bcd60e51b815260040180806020018281038252602e8152602001806128a4602e913960400191505060405180910390fd5b60015460ff16158015610b5c576001805460ff19168117905560008290555b60004690507f8b73c3c69bb8fe3d512ecc4cf759cc79239f7b179b0ffacaa9a75d522b39400f89896040518083838082843780830192505050925050506040518091039020604051806040016040528060018152602001603160f81b81525080519060200120833060405160200180868152602001858152602001848152602001838152602001826001600160a01b031681526020019550505050505060405160208183030381529060405280519060200120603b81905550610c5489898080601f016020809104026020016040519081016040528093929190818152602001838380828437600092019190915250611f0d92505050565b610c9387878080601f016020809104026020016040519081016040528093929190818152602001838380828437600092019190915250611f2092505050565b610c9c8a611f33565b8d603c60006101000a8154816001600160a01b0302191690836001600160a01b031602179055508c603d60006101000a8154816001600160a01b0302191690836001600160a01b031602179055508b603e60006101000a8154816001600160a01b0302191690836001600160a01b031602179055508a603f60006101000a8154816001600160a01b0302191690836001600160a01b031602179055508d6001600160a01b03168c6001600160a01b03167fb19e051f8af41150ccccb3fc2c2d8d15f4a4cf434f32a559ba75fe73d6eea20b8f8e8e8e8e8e8e8e8e604051808a6001600160a01b03168152602001896001600160a01b031681526020018860ff16815260200180602001806020018060200184810384528a8a82818152602001925080828437600083820152601f01601f191690910185810384528881526020019050888880828437600083820152601f01601f191690910185810383528681526020019050868680828437600083820152604051601f909101601f19169092018290039e50909c50505050505050505050505050a3508015610e43576001805460ff191690555b50505050505050505050505050565b600061083582611bcb565b6000610e6a848484611f49565b610eda84610e76611adb565b610ed58560405180606001604052806028815260200161287c602891396001600160a01b038a16600090815260356020526040812090610eb4611adb565b6001600160a01b031681526020810191909152604001600020549190611f56565b611adf565b826001600160a01b0316846001600160a01b03166000805160206128d2833981519152846040518082815260200191505060405180910390a35060019392505050565b603c60009054906101000a90046001600160a01b03166001600160a01b031663fe65acfe6040518163ffffffff1660e01b815260040160206040518083038186803b158015610f6b57600080fd5b505afa158015610f7f573d6000803e3d6000fd5b505050506040513d6020811015610f9557600080fd5b5051604080516315d9b46f60e31b815290516001600160a01b039092169163aecda37891600480820192602092909190829003018186803b158015610fd957600080fd5b505afa158015610fed573d6000803e3d6000fd5b505050506040513d602081101561100357600080fd5b50516001600160a01b0316611016611adb565b6001600160a01b03161460405180604001604052806002815260200161333360f01b815250906110875760405162461bcd60e51b81526020600482018181528351602484015283519092839260449091019190850190808383600083156108e75781810151838201526020016108cf565b50603e54604080516317066a5760e21b81526001600160a01b03848116600483015291519190921691635c19a95c91602480830192600092919082900301818387803b1580156110d657600080fd5b505af11580156110ea573d6000803e3d6000fd5b5050505050565b7f6e71edae12b1b97f4d1f60370fef10105fa2faae0126114a169c64845d6126c981565b60395460ff1690565b603b5481565b6000610831611131611adb565b84610ed58560356000611142611adb565b6001600160a01b03908116825260208083019390935260409182016000908120918c168152925290205490611fb0565b603c546000906001600160a01b0316611189611adb565b6001600160a01b03161460405180604001604052806002815260200161323960f01b815250906111fa5760405162461bcd60e51b81526020600482018181528351602484015283519092839260449091019190850190808383600083156108e75781810151838201526020016108cf565b50603e54611212906001600160a01b03168484612011565b50919050565b603c54603e546040805163d15e005360e01b81526001600160a01b039283166004820152905160009361083593169163d15e0053916024808301926020929190829003018186803b15801561126c57600080fd5b505afa158015611280573d6000803e3d6000fd5b505050506040513d602081101561129657600080fd5b50516112a184611bcb565b90611e44565b603c546001600160a01b031690565b60006112c0612063565b905090565b604051806040016040528060018152602001603160f81b81525081565b603c546001600160a01b03166112f6611adb565b6001600160a01b03161460405180604001604052806002815260200161323960f01b815250906113675760405162461bcd60e51b81526020600482018181528351602484015283519092839260449091019190850190808383600083156108e75781810151838201526020016108cf565b508161137257611405565b603d546001600160a01b03166113918161138c8585611bec565b611cf3565b6040805184815290516001600160a01b038316916000916000805160206128d28339815191529181900360200190a3604080518481526020810184905281516001600160a01b038416927f4c209b5fc8ad50758f13e2e1088ba56a560dff690a1c6fef26394f4c03821c4f928290030190a2505b5050565b603c546001600160a01b031661141d611adb565b6001600160a01b03161460405180604001604052806002815260200161323960f01b8152509061148e5760405162461bcd60e51b81526020600482018181528351602484015283519092839260449091019190850190808383600083156108e75781810151838201526020016108cf565b505050565b60388054604080516020601f60026000196101006001881615020190951694909404938401819004810282018101909252828152606093909290918301828280156108125780601f106107e757610100808354040283529160200191610812565b6000610831611501611adb565b84610ed585604051806060016040528060258152602001612986602591396035600061152b611adb565b6001600160a01b03908116825260208083019390935260409182016000908120918d16815292529020549190611f56565b6000611570611569611adb565b8484611f49565b826001600160a01b0316611582611adb565b6001600160a01b03166000805160206128d2833981519152846040518082815260200191505060405180910390a350600192915050565b603d546001600160a01b031690565b603e546001600160a01b031690565b60006112c0611be6565b603a6020526000908152604090205481565b6001600160a01b03871661163e576040805162461bcd60e51b815260206004820152600d60248201526c24a72b20a624a22fa7aba722a960991b604482015290519081900360640190fd5b83421115611688576040805162461bcd60e51b815260206004820152601260248201527124a72b20a624a22fa2ac2824a920aa24a7a760711b604482015290519081900360640190fd5b6001600160a01b038088166000818152603a6020908152604080832054603b5482517f6e71edae12b1b97f4d1f60370fef10105fa2faae0126114a169c64845d6126c98186015280840196909652958c166060860152608085018b905260a0850181905260c08086018b90528251808703909101815260e08601835280519084012061190160f01b6101008701526101028601969096526101228086019690965281518086039096018652610142850180835286519684019690962093909552610162840180825283905260ff88166101828501526101a284018790526101c284018690525191926001926101e28083019392601f198301929081900390910190855afa15801561179d573d6000803e3d6000fd5b505050602060405103516001600160a01b0316896001600160a01b031614611800576040805162461bcd60e51b8152602060048201526011602482015270494e56414c49445f5349474e415455524560781b604482015290519081900360640190fd5b61180b826001611fb0565b6001600160a01b038a166000908152603a602052604090205561182f898989611adf565b505050505050505050565b603c546001600160a01b031661184e611adb565b6001600160a01b03161460405180604001604052806002815260200161323960f01b815250906118bf5760405162461bcd60e51b81526020600482018181528351602484015283519092839260449091019190850190808383600083156108e75781810151838201526020016108cf565b5060006118cc8383611bec565b60408051808201909152600281526106a760f31b6020820152909150816119345760405162461bcd60e51b81526020600482018181528351602484015283519092839260449091019190850190808383600083156108e75781810151838201526020016108cf565b5061193f8582612072565b603e54611956906001600160a01b03168585612011565b6040805184815290516000916001600160a01b038816916000805160206128d28339815191529181900360200190a3836001600160a01b0316856001600160a01b03167f5d624aa9c148153ab3446c1b154f660ee7701e549fe9b62dab7171b1c80e6fa28585604051808381526020018281526020019250505060405180910390a35050505050565b6001600160a01b03918216600090815260356020908152604080832093909416825291909152205490565b603c546001600160a01b0316611a1e611adb565b6001600160a01b03161460405180604001604052806002815260200161323960f01b81525090611a8f5760405162461bcd60e51b81526020600482018181528351602484015283519092839260449091019190850190808383600083156108e75781810151838201526020016108cf565b50611a9d8383836000612116565b816001600160a01b0316836001600160a01b03166000805160206128d2833981519152836040518082815260200191505060405180910390a3505050565b3390565b6001600160a01b038316611b245760405162461bcd60e51b81526004018080602001828103825260248152602001806129386024913960400191505060405180910390fd5b6001600160a01b038216611b695760405162461bcd60e51b81526004018080602001828103825260228152602001806128346022913960400191505060405180910390fd5b6001600160a01b03808416600081815260356020908152604080832094871680845294825291829020859055815185815291517f8c5be1e5ebec7d5bd14f71427d1e84f3dd0314c0f7b2291e5b200ac8c7c3b9259281900390910190a3505050565b6001600160a01b031660009081526034602052604090205490565b60365490565b604080518082019091526002815261035360f41b602082015260009082611c545760405162461bcd60e51b81526020600482018181528351602484015283519092839260449091019190850190808383600083156108e75781810151838201526020016108cf565b5060408051808201909152600280825261068760f31b60208301528304906b033b2e3c9fd0803ce8000000821904851115611cd05760405162461bcd60e51b81526020600482018181528351602484015283519092839260449091019190850190808383600083156108e75781810151838201526020016108cf565b5082816b033b2e3c9fd0803ce800000086020181611cea57fe5b04949350505050565b6001600160a01b038216611d4e576040805162461bcd60e51b815260206004820152601f60248201527f45524332303a206d696e7420746f20746865207a65726f206164647265737300604482015290519081900360640190fd5b611d5a6000838361148e565b603654611d678183611fb0565b6036556001600160a01b038316600090815260346020526040902054611d8d8184611fb0565b6001600160a01b038516600090815260346020526040812091909155611db1612063565b6001600160a01b031614611e3e57611dc7612063565b6001600160a01b03166331873e2e8584846040518463ffffffff1660e01b815260040180846001600160a01b031681526020018381526020018281526020019350505050600060405180830381600087803b158015611e2557600080fd5b505af1158015611e39573d6000803e3d6000fd5b505050505b50505050565b6000821580611e51575081155b15611e5e57506000610835565b816b019d971e4fe8401e740000001981611e7457fe5b0483111560405180604001604052806002815260200161068760f31b81525090611edf5760405162461bcd60e51b81526020600482018181528351602484015283519092839260449091019190850190808383600083156108e75781810151838201526020016108cf565b50506b033b2e3c9fd0803ce800000091026b019d971e4fe8401e74000000010490565b600190565b303b1590565b805161140590603790602084019061275b565b805161140590603890602084019061275b565b6039805460ff191660ff92909216919091179055565b61148e8383836001612116565b60008184841115611fa85760405162461bcd60e51b81526020600482018181528351602484015283519092839260449091019190850190808383600083156108e75781810151838201526020016108cf565b505050900390565b60008282018381101561200a576040805162461bcd60e51b815260206004820152601b60248201527f536166654d6174683a206164646974696f6e206f766572666c6f770000000000604482015290519081900360640190fd5b9392505050565b604080516001600160a01b038416602482015260448082018490528251808303909101815260649091019091526020810180516001600160e01b031663a9059cbb60e01b17905261148e9084906122bf565b603f546001600160a01b031690565b6001600160a01b0382166120b75760405162461bcd60e51b81526004018080602001828103825260218152602001806128f26021913960400191505060405180910390fd5b6120c38260008361148e565b6036546120d08183612477565b6036556001600160a01b0383166000908152603460209081526040918290205482516060810190935260228084529092611d8d9286929061281290830139839190611f56565b603e54603c546040805163d15e005360e01b81526001600160a01b03938416600482018190529151919390921691600091839163d15e0053916024808301926020929190829003018186803b15801561216e57600080fd5b505afa158015612182573d6000803e3d6000fd5b505050506040513d602081101561219857600080fd5b5051905060006121ab826112a18a611bcb565b905060006121bc836112a18a611bcb565b90506121d289896121cd8a87611bec565b6124b9565b8515612261576040805163d5ed393360e01b81526001600160a01b0387811660048301528b811660248301528a81166044830152606482018a90526084820185905260a4820184905291519186169163d5ed39339160c48082019260009290919082900301818387803b15801561224857600080fd5b505af115801561225c573d6000803e3d6000fd5b505050505b876001600160a01b0316896001600160a01b03167f4beccb90f994c31aced7a23b5611020728a23d8ec5cddd1a3e9d97b96fda86668986604051808381526020018281526020019250505060405180910390a3505050505050505050565b6122d1826001600160a01b031661271f565b612322576040805162461bcd60e51b815260206004820152601f60248201527f5361666545524332303a2063616c6c20746f206e6f6e2d636f6e747261637400604482015290519081900360640190fd5b60006060836001600160a01b0316836040518082805190602001908083835b602083106123605780518252601f199092019160209182019101612341565b6001836020036101000a0380198251168184511680821785525050505050509050019150506000604051808303816000865af19150503d80600081146123c2576040519150601f19603f3d011682016040523d82523d6000602084013e6123c7565b606091505b50915091508161241e576040805162461bcd60e51b815260206004820181905260248201527f5361666545524332303a206c6f772d6c6576656c2063616c6c206661696c6564604482015290519081900360640190fd5b805115611e3e5780806020019051602081101561243a57600080fd5b5051611e3e5760405162461bcd60e51b815260040180806020018281038252602a81526020018061295c602a913960400191505060405180910390fd5b600061200a83836040518060400160405280601e81526020017f536166654d6174683a207375627472616374696f6e206f766572666c6f770000815250611f56565b6001600160a01b0383166124fe5760405162461bcd60e51b81526004018080602001828103825260258152602001806129136025913960400191505060405180910390fd5b6001600160a01b0382166125435760405162461bcd60e51b81526004018080602001828103825260238152602001806127ef6023913960400191505060405180910390fd5b61254e83838361148e565b600060346000856001600160a01b03166001600160a01b0316815260200190815260200160002054905061259d8260405180606001604052806026815260200161285660269139839190611f56565b6001600160a01b0380861660009081526034602052604080822093909355908516815220546125cc8184611fb0565b6001600160a01b0385166000908152603460205260408120919091556125f0612063565b6001600160a01b0316146110ea57603654612609612063565b6001600160a01b03166331873e2e8783866040518463ffffffff1660e01b815260040180846001600160a01b031681526020018381526020018281526020019350505050600060405180830381600087803b15801561266757600080fd5b505af115801561267b573d6000803e3d6000fd5b50505050846001600160a01b0316866001600160a01b031614612717576126a0612063565b6001600160a01b03166331873e2e8683856040518463ffffffff1660e01b815260040180846001600160a01b031681526020018381526020018281526020019350505050600060405180830381600087803b1580156126fe57600080fd5b505af1158015612712573d6000803e3d6000fd5b505050505b505050505050565b6000813f7fc5d2460186f7233c927e7db2dcc703c0e500b653ca82273b7bfad8045d85a47081811480159061275357508115155b949350505050565b828054600181600116156101000203166002900490600052602060002090601f016020900481019282601f1061279c57805160ff19168380011785556127c9565b828001600101855582156127c9579182015b828111156127c95782518255916020019190600101906127ae565b506127d59291506127d9565b5090565b5b808211156127d557600081556001016127da56fe45524332303a207472616e7366657220746f20746865207a65726f206164647265737345524332303a206275726e20616d6f756e7420657863656564732062616c616e636545524332303a20617070726f766520746f20746865207a65726f206164647265737345524332303a207472616e7366657220616d6f756e7420657863656564732062616c616e636545524332303a207472616e7366657220616d6f756e74206578636565647320616c6c6f77616e6365436f6e747261637420696e7374616e63652068617320616c7265616479206265656e20696e697469616c697a6564ddf252ad1be2c89b69c2b068fc378daa952ba7f163c4a11628f55a4df523b3ef45524332303a206275726e2066726f6d20746865207a65726f206164647265737345524332303a207472616e736665722066726f6d20746865207a65726f206164647265737345524332303a20617070726f76652066726f6d20746865207a65726f20616464726573735361666545524332303a204552433230206f7065726174696f6e20646964206e6f74207375636365656445524332303a2064656372656173656420616c6c6f77616e63652062656c6f77207a65726fa2646970667358221220609589b6ff0a76449c28e748bf93f6b14f493a4a7dbd5f6ecc950cb7372c58cb64736f6c634300060c0033",
  "linkReferences": {},
  "deployedLinkReferences": {}
}