{
  "_format": "hh-sol-artifact-1",
  "contractName": "Errors",
  "sourceName": "contracts/protocol/libraries/helpers/Errors.sol",
  "abi": [
    {
      "inputs": [],
      "name": "BORROW_ALLOWANCE_NOT_ENOUGH",
      "outputs": [
        {
          "internalType": "string",
          "name": "",
          "type": "string"
        }
      ],
      "stateMutability": "view",
      "type": "function"
    },
    {
      "inputs": [],
      "name": "CALLER_NOT_POOL_ADMIN",
      "outputs": [
        {
          "internalType": "string",
          "name": "",
          "type": "string"
        }
      ],
      "stateMutability": "view",
      "type": "function"
    },
    {
      "inputs": [],
      "name": "CT_CALLER_MUST_BE_LENDING_POOL",
      "outputs": [
        {
          "internalType": "string",
          "name": "",
          "type": "string"
        }
      ],
      "stateMutability": "view",
      "type": "function"
    },
    {
      "inputs": [],
      "name": "CT_CANNOT_GIVE_ALLOWANCE_TO_HIMSELF",
      "outputs": [
        {
          "internalType": "string",
          "name": "",
          "type": "string"
        }
      ],
      "stateMutability": "view",
      "type": "function"
    },
    {
      "inputs": [],
      "name": "CT_INVALID_BURN_AMOUNT",
      "outputs": [
        {
          "internalType": "string",
          "name": "",
          "type": "string"
        }
      ],
      "stateMutability": "view",
      "type": "function"
    },
    {
      "inputs": [],
      "name": "CT_INVALID_MINT_AMOUNT",
      "outputs": [
        {
          "internalType": "string",
          "name": "",
          "type": "string"
        }
      ],
      "stateMutability": "view",
      "type": "function"
    },
    {
      "inputs": [],
      "name": "CT_TRANSFER_AMOUNT_NOT_GT_0",
      "outputs": [
        {
          "internalType": "string",
          "name": "",
          "type": "string"
        }
      ],
      "stateMutability": "view",
      "type": "function"
    },
    {
      "inputs": [],
      "name": "LPAPR_INVALID_ADDRESSES_PROVIDER_ID",
      "outputs": [
        {
          "internalType": "string",
          "name": "",
          "type": "string"
        }
      ],
      "stateMutability": "view",
      "type": "function"
    },
    {
      "inputs": [],
      "name": "LPAPR_PROVIDER_NOT_REGISTERED",
      "outputs": [
        {
          "internalType": "string",
          "name": "",
          "type": "string"
        }
      ],
      "stateMutability": "view",
      "type": "function"
    },
    {
      "inputs": [],
      "name": "LPCM_COLLATERAL_CANNOT_BE_LIQUIDATED",
      "outputs": [
        {
          "internalType": "string",
          "name": "",
          "type": "string"
        }
      ],
      "stateMutability": "view",
      "type": "function"
    },
    {
      "inputs": [],
      "name": "LPCM_HEALTH_FACTOR_NOT_BELOW_THRESHOLD",
      "outputs": [
        {
          "internalType": "string",
          "name": "",
          "type": "string"
        }
      ],
      "stateMutability": "view",
      "type": "function"
    },
    {
      "inputs": [],
      "name": "LPCM_NOT_ENOUGH_LIQUIDITY_TO_LIQUIDATE",
      "outputs": [
        {
          "internalType": "string",
          "name": "",
          "type": "string"
        }
      ],
      "stateMutability": "view",
      "type": "function"
    },
    {
      "inputs": [],
      "name": "LPCM_NO_ERRORS",
      "outputs": [
        {
          "internalType": "string",
          "name": "",
          "type": "string"
        }
      ],
      "stateMutability": "view",
      "type": "function"
    },
    {
      "inputs": [],
      "name": "LPCM_SPECIFIED_CURRENCY_NOT_BORROWED_BY_USER",
      "outputs": [
        {
          "internalType": "string",
          "name": "",
          "type": "string"
        }
      ],
      "stateMutability": "view",
      "type": "function"
    },
    {
      "inputs": [],
      "name": "LPC_CALLER_NOT_EMERGENCY_ADMIN",
      "outputs": [
        {
          "internalType": "string",
          "name": "",
          "type": "string"
        }
      ],
      "stateMutability": "view",
      "type": "function"
    },
    {
      "inputs": [],
      "name": "LPC_INVALID_ADDRESSES_PROVIDER_ID",
      "outputs": [
        {
          "internalType": "string",
          "name": "",
          "type": "string"
        }
      ],
      "stateMutability": "view",
      "type": "function"
    },
    {
      "inputs": [],
      "name": "LPC_INVALID_ATOKEN_POOL_ADDRESS",
      "outputs": [
        {
          "internalType": "string",
          "name": "",
          "type": "string"
        }
      ],
      "stateMutability": "view",
      "type": "function"
    },
    {
      "inputs": [],
      "name": "LPC_INVALID_CONFIGURATION",
      "outputs": [
        {
          "internalType": "string",
          "name": "",
          "type": "string"
        }
      ],
      "stateMutability": "view",
      "type": "function"
    },
    {
      "inputs": [],
      "name": "LPC_INVALID_STABLE_DEBT_TOKEN_POOL_ADDRESS",
      "outputs": [
        {
          "internalType": "string",
          "name": "",
          "type": "string"
        }
      ],
      "stateMutability": "view",
      "type": "function"
    },
    {
      "inputs": [],
      "name": "LPC_INVALID_STABLE_DEBT_TOKEN_UNDERLYING_ADDRESS",
      "outputs": [
        {
          "internalType": "string",
          "name": "",
          "type": "string"
        }
      ],
      "stateMutability": "view",
      "type": "function"
    },
    {
      "inputs": [],
      "name": "LPC_INVALID_VARIABLE_DEBT_TOKEN_POOL_ADDRESS",
      "outputs": [
        {
          "internalType": "string",
          "name": "",
          "type": "string"
        }
      ],
      "stateMutability": "view",
      "type": "function"
    },
    {
      "inputs": [],
      "name": "LPC_INVALID_VARIABLE_DEBT_TOKEN_UNDERLYING_ADDRESS",
      "outputs": [
        {
          "internalType": "string",
          "name": "",
          "type": "string"
        }
      ],
      "stateMutability": "view",
      "type": "function"
    },
    {
      "inputs": [],
      "name": "LPC_RESERVE_LIQUIDITY_NOT_0",
      "outputs": [
        {
          "internalType": "string",
          "name": "",
          "type": "string"
        }
      ],
      "stateMutability": "view",
      "type": "function"
    },
    {
      "inputs": [],
      "name": "LP_CALLER_MUST_BE_AN_ATOKEN",
      "outputs": [
        {
          "internalType": "string",
          "name": "",
          "type": "string"
        }
      ],
      "stateMutability": "view",
      "type": "function"
    },
    {
      "inputs": [],
      "name": "LP_CALLER_NOT_LENDING_POOL_CONFIGURATOR",
      "outputs": [
        {
          "internalType": "string",
          "name": "",
          "type": "string"
        }
      ],
      "stateMutability": "view",
      "type": "function"
    },
    {
      "inputs": [],
      "name": "LP_FAILED_COLLATERAL_SWAP",
      "outputs": [
        {
          "internalType": "string",
          "name": "",
          "type": "string"
        }
      ],
      "stateMutability": "view",
      "type": "function"
    },
    {
      "inputs": [],
      "name": "LP_FAILED_REPAY_WITH_COLLATERAL",
      "outputs": [
        {
          "internalType": "string",
          "name": "",
          "type": "string"
        }
      ],
      "stateMutability": "view",
      "type": "function"
    },
    {
      "inputs": [],
      "name": "LP_INCONSISTENT_FLASHLOAN_PARAMS",
      "outputs": [
        {
          "internalType": "string",
          "name": "",
          "type": "string"
        }
      ],
      "stateMutability": "view",
      "type": "function"
    },
    {
      "inputs": [],
      "name": "LP_INCONSISTENT_PARAMS_LENGTH",
      "outputs": [
        {
          "internalType": "string",
          "name": "",
          "type": "string"
        }
      ],
      "stateMutability": "view",
      "type": "function"
    },
    {
      "inputs": [],
      "name": "LP_INCONSISTENT_PROTOCOL_ACTUAL_BALANCE",
      "outputs": [
        {
          "internalType": "string",
          "name": "",
          "type": "string"
        }
      ],
      "stateMutability": "view",
      "type": "function"
    },
    {
      "inputs": [],
      "name": "LP_INTEREST_RATE_REBALANCE_CONDITIONS_NOT_MET",
      "outputs": [
        {
          "internalType": "string",
          "name": "",
          "type": "string"
        }
      ],
      "stateMutability": "view",
      "type": "function"
    },
    {
      "inputs": [],
      "name": "LP_INVALID_EQUAL_ASSETS_TO_SWAP",
      "outputs": [
        {
          "internalType": "string",
          "name": "",
          "type": "string"
        }
      ],
      "stateMutability": "view",
      "type": "function"
    },
    {
      "inputs": [],
      "name": "LP_INVALID_FLASHLOAN_MODE",
      "outputs": [
        {
          "internalType": "string",
          "name": "",
          "type": "string"
        }
      ],
      "stateMutability": "view",
      "type": "function"
    },
    {
      "inputs": [],
      "name": "LP_INVALID_FLASH_LOAN_EXECUTOR_RETURN",
      "outputs": [
        {
          "internalType": "string",
          "name": "",
          "type": "string"
        }
      ],
      "stateMutability": "view",
      "type": "function"
    },
    {
      "inputs": [],
      "name": "LP_IS_PAUSED",
      "outputs": [
        {
          "internalType": "string",
          "name": "",
          "type": "string"
        }
      ],
      "stateMutability": "view",
      "type": "function"
    },
    {
      "inputs": [],
      "name": "LP_LIQUIDATION_CALL_FAILED",
      "outputs": [
        {
          "internalType": "string",
          "name": "",
          "type": "string"
        }
      ],
      "stateMutability": "view",
      "type": "function"
    },
    {
      "inputs": [],
      "name": "LP_NOT_CONTRACT",
      "outputs": [
        {
          "internalType": "string",
          "name": "",
          "type": "string"
        }
      ],
      "stateMutability": "view",
      "type": "function"
    },
    {
      "inputs": [],
      "name": "LP_NOT_ENOUGH_LIQUIDITY_TO_BORROW",
      "outputs": [
        {
          "internalType": "string",
          "name": "",
          "type": "string"
        }
      ],
      "stateMutability": "view",
      "type": "function"
    },
    {
      "inputs": [],
      "name": "LP_NOT_ENOUGH_STABLE_BORROW_BALANCE",
      "outputs": [
        {
          "internalType": "string",
          "name": "",
          "type": "string"
        }
      ],
      "stateMutability": "view",
      "type": "function"
    },
    {
      "inputs": [],
      "name": "LP_NO_MORE_RESERVES_ALLOWED",
      "outputs": [
        {
          "internalType": "string",
          "name": "",
          "type": "string"
        }
      ],
      "stateMutability": "view",
      "type": "function"
    },
    {
      "inputs": [],
      "name": "LP_REENTRANCY_NOT_ALLOWED",
      "outputs": [
        {
          "internalType": "string",
          "name": "",
          "type": "string"
        }
      ],
      "stateMutability": "view",
      "type": "function"
    },
    {
      "inputs": [],
      "name": "LP_REQUESTED_AMOUNT_TOO_SMALL",
      "outputs": [
        {
          "internalType": "string",
          "name": "",
          "type": "string"
        }
      ],
      "stateMutability": "view",
      "type": "function"
    },
    {
      "inputs": [],
      "name": "MATH_ADDITION_OVERFLOW",
      "outputs": [
        {
          "internalType": "string",
          "name": "",
          "type": "string"
        }
      ],
      "stateMutability": "view",
      "type": "function"
    },
    {
      "inputs": [],
      "name": "MATH_DIVISION_BY_ZERO",
      "outputs": [
        {
          "internalType": "string",
          "name": "",
          "type": "string"
        }
      ],
      "stateMutability": "view",
      "type": "function"
    },
    {
      "inputs": [],
      "name": "MATH_MULTIPLICATION_OVERFLOW",
      "outputs": [
        {
          "internalType": "string",
          "name": "",
          "type": "string"
        }
      ],
      "stateMutability": "view",
      "type": "function"
    },
    {
      "inputs": [],
      "name": "PLP_BORROWER_UNAUTHORIZED",
      "outputs": [
        {
          "internalType": "string",
          "name": "",
          "type": "string"
        }
      ],
      "stateMutability": "view",
      "type": "function"
    },
    {
      "inputs": [],
      "name": "PLP_CALLER_NOT_STABLE_RATE_MANAGER",
      "outputs": [
        {
          "internalType": "string",
          "name": "",
          "type": "string"
        }
      ],
      "stateMutability": "view",
      "type": "function"
    },
    {
      "inputs": [],
      "name": "PLP_DEPOSITOR_UNAUTHORIZED",
      "outputs": [
        {
          "internalType": "string",
          "name": "",
          "type": "string"
        }
      ],
      "stateMutability": "view",
      "type": "function"
    },
    {
      "inputs": [],
      "name": "PLP_INVALID_PERMISSION_ADMIN",
      "outputs": [
        {
          "internalType": "string",
          "name": "",
          "type": "string"
        }
      ],
      "stateMutability": "view",
      "type": "function"
    },
    {
      "inputs": [],
      "name": "PLP_LIQUIDATOR_UNAUTHORIZED",
      "outputs": [
        {
          "internalType": "string",
          "name": "",
          "type": "string"
        }
      ],
      "stateMutability": "view",
      "type": "function"
    },
    {
      "inputs": [],
      "name": "PLP_USER_UNAUTHORIZED",
      "outputs": [
        {
          "internalType": "string",
          "name": "",
          "type": "string"
        }
      ],
      "stateMutability": "view",
      "type": "function"
    },
    {
      "inputs": [],
      "name": "RC_INVALID_DECIMALS",
      "outputs": [
        {
          "internalType": "string",
          "name": "",
          "type": "string"
        }
      ],
      "stateMutability": "view",
      "type": "function"
    },
    {
      "inputs": [],
      "name": "RC_INVALID_LIQ_BONUS",
      "outputs": [
        {
          "internalType": "string",
          "name": "",
          "type": "string"
        }
      ],
      "stateMutability": "view",
      "type": "function"
    },
    {
      "inputs": [],
      "name": "RC_INVALID_LIQ_THRESHOLD",
      "outputs": [
        {
          "internalType": "string",
          "name": "",
          "type": "string"
        }
      ],
      "stateMutability": "view",
      "type": "function"
    },
    {
      "inputs": [],
      "name": "RC_INVALID_LTV",
      "outputs": [
        {
          "internalType": "string",
          "name": "",
          "type": "string"
        }
      ],
      "stateMutability": "view",
      "type": "function"
    },
    {
      "inputs": [],
      "name": "RC_INVALID_RESERVE_FACTOR",
      "outputs": [
        {
          "internalType": "string",
          "name": "",
          "type": "string"
        }
      ],
      "stateMutability": "view",
      "type": "function"
    },
    {
      "inputs": [],
      "name": "RL_LIQUIDITY_INDEX_OVERFLOW",
      "outputs": [
        {
          "internalType": "string",
          "name": "",
          "type": "string"
        }
      ],
      "stateMutability": "view",
      "type": "function"
    },
    {
      "inputs": [],
      "name": "RL_LIQUIDITY_RATE_OVERFLOW",
      "outputs": [
        {
          "internalType": "string",
          "name": "",
          "type": "string"
        }
      ],
      "stateMutability": "view",
      "type": "function"
    },
    {
      "inputs": [],
      "name": "RL_RESERVE_ALREADY_INITIALIZED",
      "outputs": [
        {
          "internalType": "string",
          "name": "",
          "type": "string"
        }
      ],
      "stateMutability": "view",
      "type": "function"
    },
    {
      "inputs": [],
      "name": "RL_STABLE_BORROW_RATE_OVERFLOW",
      "outputs": [
        {
          "internalType": "string",
          "name": "",
          "type": "string"
        }
      ],
      "stateMutability": "view",
      "type": "function"
    },
    {
      "inputs": [],
      "name": "RL_VARIABLE_BORROW_INDEX_OVERFLOW",
      "outputs": [
        {
          "internalType": "string",
          "name": "",
          "type": "string"
        }
      ],
      "stateMutability": "view",
      "type": "function"
    },
    {
      "inputs": [],
      "name": "RL_VARIABLE_BORROW_RATE_OVERFLOW",
      "outputs": [
        {
          "internalType": "string",
          "name": "",
          "type": "string"
        }
      ],
      "stateMutability": "view",
      "type": "function"
    },
    {
      "inputs": [],
      "name": "SDT_BURN_EXCEEDS_BALANCE",
      "outputs": [
        {
          "internalType": "string",
          "name": "",
          "type": "string"
        }
      ],
      "stateMutability": "view",
      "type": "function"
    },
    {
      "inputs": [],
      "name": "SDT_STABLE_DEBT_OVERFLOW",
      "outputs": [
        {
          "internalType": "string",
          "name": "",
          "type": "string"
        }
      ],
      "stateMutability": "view",
      "type": "function"
    },
    {
      "inputs": [],
      "name": "UL_INVALID_INDEX",
      "outputs": [
        {
          "internalType": "string",
          "name": "",
          "type": "string"
        }
      ],
      "stateMutability": "view",
      "type": "function"
    },
    {
      "inputs": [],
      "name": "VL_AMOUNT_BIGGER_THAN_MAX_LOAN_SIZE_STABLE",
      "outputs": [
        {
          "internalType": "string",
          "name": "",
          "type": "string"
        }
      ],
      "stateMutability": "view",
      "type": "function"
    },
    {
      "inputs": [],
      "name": "VL_BORROWING_NOT_ENABLED",
      "outputs": [
        {
          "internalType": "string",
          "name": "",
          "type": "string"
        }
      ],
      "stateMutability": "view",
      "type": "function"
    },
    {
      "inputs": [],
      "name": "VL_COLLATERAL_BALANCE_IS_0",
      "outputs": [
        {
          "internalType": "string",
          "name": "",
          "type": "string"
        }
      ],
      "stateMutability": "view",
      "type": "function"
    },
    {
      "inputs": [],
      "name": "VL_COLLATERAL_CANNOT_COVER_NEW_BORROW",
      "outputs": [
        {
          "internalType": "string",
          "name": "",
          "type": "string"
        }
      ],
      "stateMutability": "view",
      "type": "function"
    },
    {
      "inputs": [],
      "name": "VL_COLLATERAL_SAME_AS_BORROWING_CURRENCY",
      "outputs": [
        {
          "internalType": "string",
          "name": "",
          "type": "string"
        }
      ],
      "stateMutability": "view",
      "type": "function"
    },
    {
      "inputs": [],
      "name": "VL_CURRENT_AVAILABLE_LIQUIDITY_NOT_ENOUGH",
      "outputs": [
        {
          "internalType": "string",
          "name": "",
          "type": "string"
        }
      ],
      "stateMutability": "view",
      "type": "function"
    },
    {
      "inputs": [],
      "name": "VL_DEPOSIT_ALREADY_IN_USE",
      "outputs": [
        {
          "internalType": "string",
          "name": "",
          "type": "string"
        }
      ],
      "stateMutability": "view",
      "type": "function"
    },
    {
      "inputs": [],
      "name": "VL_HEALTH_FACTOR_LOWER_THAN_LIQUIDATION_THRESHOLD",
      "outputs": [
        {
          "internalType": "string",
          "name": "",
          "type": "string"
        }
      ],
      "stateMutability": "view",
      "type": "function"
    },
    {
      "inputs": [],
      "name": "VL_INCONSISTENT_FLASHLOAN_PARAMS",
      "outputs": [
        {
          "internalType": "string",
          "name": "",
          "type": "string"
        }
      ],
      "stateMutability": "view",
      "type": "function"
    },
    {
      "inputs": [],
      "name": "VL_INVALID_AMOUNT",
      "outputs": [
        {
          "internalType": "string",
          "name": "",
          "type": "string"
        }
      ],
      "stateMutability": "view",
      "type": "function"
    },
    {
      "inputs": [],
      "name": "VL_INVALID_INTEREST_RATE_MODE_SELECTED",
      "outputs": [
        {
          "internalType": "string",
          "name": "",
          "type": "string"
        }
      ],
      "stateMutability": "view",
      "type": "function"
    },
    {
      "inputs": [],
      "name": "VL_NOT_ENOUGH_AVAILABLE_USER_BALANCE",
      "outputs": [
        {
          "internalType": "string",
          "name": "",
          "type": "string"
        }
      ],
      "stateMutability": "view",
      "type": "function"
    },
    {
      "inputs": [],
      "name": "VL_NO_ACTIVE_RESERVE",
      "outputs": [
        {
          "internalType": "string",
          "name": "",
          "type": "string"
        }
      ],
      "stateMutability": "view",
      "type": "function"
    },
    {
      "inputs": [],
      "name": "VL_NO_DEBT_OF_SELECTED_TYPE",
      "outputs": [
        {
          "internalType": "string",
          "name": "",
          "type": "string"
        }
      ],
      "stateMutability": "view",
      "type": "function"
    },
    {
      "inputs": [],
      "name": "VL_NO_EXPLICIT_AMOUNT_TO_REPAY_ON_BEHALF",
      "outputs": [
        {
          "internalType": "string",
          "name": "",
          "type": "string"
        }
      ],
      "stateMutability": "view",
      "type": "function"
    },
    {
      "inputs": [],
      "name": "VL_NO_STABLE_RATE_LOAN_IN_RESERVE",
      "outputs": [
        {
          "internalType": "string",
          "name": "",
          "type": "string"
        }
      ],
      "stateMutability": "view",
      "type": "function"
    },
    {
      "inputs": [],
      "name": "VL_NO_VARIABLE_RATE_LOAN_IN_RESERVE",
      "outputs": [
        {
          "internalType": "string",
          "name": "",
          "type": "string"
        }
      ],
      "stateMutability": "view",
      "type": "function"
    },
    {
      "inputs": [],
      "name": "VL_RESERVE_FROZEN",
      "outputs": [
        {
          "internalType": "string",
          "name": "",
          "type": "string"
        }
      ],
      "stateMutability": "view",
      "type": "function"
    },
    {
      "inputs": [],
      "name": "VL_STABLE_BORROWING_NOT_ENABLED",
      "outputs": [
        {
          "internalType": "string",
          "name": "",
          "type": "string"
        }
      ],
      "stateMutability": "view",
      "type": "function"
    },
    {
      "inputs": [],
      "name": "VL_TRANSFER_NOT_ALLOWED",
      "outputs": [
        {
          "internalType": "string",
          "name": "",
          "type": "string"
        }
      ],
      "stateMutability": "view",
      "type": "function"
    },
    {
      "inputs": [],
      "name": "VL_UNDERLYING_BALANCE_NOT_GREATER_THAN_0",
      "outputs": [
        {
          "internalType": "string",
          "name": "",
          "type": "string"
        }
      ],
      "stateMutability": "view",
      "type": "function"
    }
  ],
  "bytecode": "0x611237610026600b82828239805160001a60731461001957fe5b30600052607381538281f3fe73000000000000000000000000000000000000000030146080604052600436106104cc5760003560e01c8063708b8dd311610282578063cdad445a11610166578063e6632748116100d8578063f11c67201161009c578063f11c6720146107c6578063f3d9cc11146107ce578063f482f54a146107d6578063f902735d146107de578063fb681def146107e6578063fe75fd26146107ee576104cc565b8063e66327481461079e578063e7bf91b3146107a6578063e873cdda146107ae578063eca85d3a146107b6578063f0473259146107be576104cc565b8063d7510e0c1161012a578063d7510e0c1461076e578063d7b079aa14610776578063daf235471461077e578063e0d7dfd714610786578063e29425dc1461078e578063e2c16d6914610796576104cc565b8063cdad445a14610746578063d3e370ee1461074e578063d44e8e8814610756578063d57bb9641461075e578063d6f681b614610766576104cc565b8063a8440241116101ff578063b89652cd116101c3578063b89652cd14610716578063bbbb00771461071e578063bd013f5b14610726578063c09e26181461072e578063c2d628df14610736578063cc5fc44c1461073e576104cc565b8063a8440241146106ee578063ac753236146106f6578063af68391b146106fe578063b36a2cf314610706578063b72e40c71461070e576104cc565b80638b60a552116102465780638b60a552146106c657806391a9fb18146106ce5780639be4f03a146106d6578063a2fbc8ad146106de578063a39ed4ff146106e6576104cc565b8063708b8dd31461069e57806371a629da146106a657806376f19030146106ae5780637865a627146106b6578063871938a8146106be576104cc565b80633aa786a8116103b45780634fe4f1ab11610326578063637a5a12116102ea578063637a5a121461066e5780636422b25714610676578063653447991461067e5780636ab5e615146106865780636ba4271f1461068e5780636d422aa114610696576104cc565b80634fe4f1ab1461064657806355bab12c1461064e5780635a9786d4146106565780635e869ff11461065e578063614cf6a114610666576104cc565b80634349e3d8116103785780634349e3d814610616578063449420041461061e57806344dc4f701461062657806347d253001461062e5780634927c63a146106365780634a529f911461063e576104cc565b80633aa786a8146105ee5780633b5d25aa146105f65780633f5d6ec8146105fe578063407374a41461060657806341b40ba51461060e576104cc565b80631ec68b1d1161044d5780632ea347b0116104115780632ea347b0146105be578063333e8ea8146105c657806335a9d21d146105ce57806336565ab1146105d65780633872b0ad146105de578063390f34ba146105e6576104cc565b80631ec68b1d1461059657806322a6f08e1461059e5780632ace698a146105a65780632b34c349146105ae5780632b9c57f6146105b6576104cc565b80631183820f116104945780631183820f1461056e5780631291a38b14610576578063179476c51461057e5780631befa78d146105865780631ea7c6041461058e576104cc565b806302454ad3146104d1578063029d23441461054e57806306f355ad146105565780630b8fd5881461055e5780630f5ee48214610566575b600080fd5b6104d96107f6565b6040805160208082528351818301528351919283929083019185019080838360005b838110156105135781810151838201526020016104fb565b50505050905090810190601f1680156105405780820380516001836020036101000a031916815260200191505b509250505060405180910390f35b6104d9610814565b6104d9610832565b6104d9610850565b6104d961086e565b6104d961088c565b6104d96108aa565b6104d96108c8565b6104d96108e5565b6104d9610903565b6104d9610921565b6104d961093f565b6104d961095d565b6104d961097b565b6104d9610999565b6104d96109b7565b6104d96109d5565b6104d96109f3565b6104d9610a11565b6104d9610a2e565b6104d9610a4c565b6104d9610a6a565b6104d9610a88565b6104d9610aa5565b6104d9610ac3565b6104d9610ae1565b6104d9610aff565b6104d9610b1d565b6104d9610b3b565b6104d9610b59565b6104d9610b77565b6104d9610b95565b6104d9610bb3565b6104d9610bd1565b6104d9610bef565b6104d9610c0d565b6104d9610c2b565b6104d9610c49565b6104d9610c67565b6104d9610c85565b6104d9610ca3565b6104d9610cc1565b6104d9610cdf565b6104d9610cfd565b6104d9610d1a565b6104d9610d38565b6104d9610d56565b6104d9610d73565b6104d9610d90565b6104d9610dae565b6104d9610dcc565b6104d9610dea565b6104d9610e08565b6104d9610e26565b6104d9610e43565b6104d9610e61565b6104d9610e7f565b6104d9610e9d565b6104d9610ebb565b6104d9610ed9565b6104d9610ef7565b6104d9610f15565b6104d9610f33565b6104d9610f51565b6104d9610f6f565b6104d9610f8d565b6104d9610fab565b6104d9610fc9565b6104d9610fe7565b6104d9611005565b6104d9611022565b6104d9611040565b6104d961105e565b6104d961107c565b6104d961109a565b6104d96110b8565b6104d96110d6565b6104d96110f4565b6104d9611112565b6104d9611130565b6104d961114e565b6104d961116c565b6104d9611189565b6104d96111a7565b6104d96111c5565b6104d96111e3565b60405180604001604052806002815260200161373760f01b81525081565b60405180604001604052806002815260200161068760f31b81525081565b60405180604001604052806002815260200161033360f41b81525081565b60405180604001604052806002815260200161191b60f11b81525081565b60405180604001604052806002815260200161343960f01b81525081565b60405180604001604052806002815260200161383360f01b81525081565b604051806040016040528060028152602001611a9b60f11b81525081565b604051806040016040528060018152602001600d60fa1b81525081565b60405180604001604052806002815260200161038360f41b81525081565b604051806040016040528060028152602001611a1b60f11b81525081565b60405180604001604052806002815260200161031360f41b81525081565b604051806040016040528060028152602001610c8d60f21b81525081565b60405180604001604052806002815260200161313160f01b81525081565b60405180604001604052806002815260200161064760f31b81525081565b6040518060400160405280600281526020016106a760f31b81525081565b604051806040016040528060028152602001610d4d60f21b81525081565b604051806040016040528060028152602001611b9960f11b81525081565b60405180604001604052806002815260200161313960f01b81525081565b604051806040016040528060018152602001603760f81b81525081565b60405180604001604052806002815260200161333960f01b81525081565b60405180604001604052806002815260200161323560f01b81525081565b604051806040016040528060028152602001610c4d60f21b81525081565b604051806040016040528060018152602001600760fb1b81525081565b60405180604001604052806002815260200161037360f41b81525081565b60405180604001604052806002815260200161343360f01b81525081565b60405180604001604052806002815260200161066760f31b81525081565b60405180604001604052806002815260200161035360f41b81525081565b604051806040016040528060028152602001611a9960f11b81525081565b60405180604001604052806002815260200161323160f01b81525081565b60405180604001604052806002815260200161373560f01b81525081565b60405180604001604052806002815260200161189960f11b81525081565b60405180604001604052806002815260200161323360f01b81525081565b60405180604001604052806002815260200161353160f01b81525081565b60405180604001604052806002815260200161036360f41b81525081565b60405180604001604052806002815260200161034360f41b81525081565b60405180604001604052806002815260200161363960f01b81525081565b60405180604001604052806002815260200161363760f01b81525081565b6040518060400160405280600281526020016106e760f31b81525081565b60405180604001604052806002815260200161313760f01b81525081565b604051806040016040528060028152602001610ccd60f21b81525081565b60405180604001604052806002815260200161062760f31b81525081565b60405180604001604052806002815260200161323960f01b81525081565b60405180604001604052806002815260200161353560f01b81525081565b604051806040016040528060018152602001603960f81b81525081565b604051806040016040528060028152602001610d0d60f21b81525081565b60405180604001604052806002815260200161363560f01b81525081565b604051806040016040528060018152602001601960f91b81525081565b604051806040016040528060018152602001603160f81b81525081565b60405180604001604052806002815260200161383560f01b81525081565b60405180604001604052806002815260200161313560f01b81525081565b60405180604001604052806002815260200161373160f01b81525081565b60405180604001604052806002815260200161333160f01b81525081565b60405180604001604052806002815260200161313360f01b81525081565b604051806040016040528060018152602001603560f81b81525081565b60405180604001604052806002815260200161333360f01b81525081565b604051806040016040528060028152602001610e0d60f21b81525081565b60405180604001604052806002815260200161323760f01b81525081565b604051806040016040528060028152602001610dcd60f21b81525081565b60405180604001604052806002815260200161191960f11b81525081565b60405180604001604052806002815260200161383160f01b81525081565b6040518060400160405280600281526020016106c760f31b81525081565b60405180604001604052806002815260200161333760f01b81525081565b60405180604001604052806002815260200161363160f01b81525081565b60405180604001604052806002815260200161343560f01b81525081565b60405180604001604052806002815260200161373960f01b81525081565b604051806040016040528060028152602001611b9b60f11b81525081565b604051806040016040528060028152602001611b1b60f11b81525081565b604051806040016040528060028152602001610d8d60f21b81525081565b60405180604001604052806002815260200161343160f01b81525081565b604051806040016040528060018152602001603360f81b81525081565b60405180604001604052806002815260200161373360f01b81525081565b60405180604001604052806002815260200161189b60f11b81525081565b60405180604001604052806002815260200161199b60f11b81525081565b60405180604001604052806002815260200161032360f41b81525081565b60405180604001604052806002815260200161353960f01b81525081565b60405180604001604052806002815260200161353760f01b81525081565b60405180604001604052806002815260200161343760f01b81525081565b604051806040016040528060028152602001611c1960f11b81525081565b60405180604001604052806002815260200161363360f01b81525081565b60405180604001604052806002815260200161333560f01b81525081565b60405180604001604052806002815260200161353360f01b81525081565b604051806040016040528060018152602001601b60f91b81525081565b604051806040016040528060028152602001611c1b60f11b81525081565b604051806040016040528060028152602001611b1960f11b81525081565b604051806040016040528060028152602001611a1960f11b81525081565b60405180604001604052806002815260200161199960f11b8152508156fea264697066735822122025c35e0f3d146b2ef73aee7525f7ad4b2e39e6946ce7eeb5174f9b3b9008dfb464736f6c634300060c0033",
  "linkReferences": {},
  "deployedLinkReferences": {}
}