{
  "_format": "hh-sol-artifact-1",
  "contractName": "UniswapLiquiditySwapAdapter",
  "sourceName": "contracts/adapters/UniswapLiquiditySwapAdapter.sol",
  "abi": [
    {
      "inputs": [
        {
          "internalType": "contract ILendingPoolAddressesProvider",
          "name": "addressesProvider",
          "type": "address"
        },
        {
          "internalType": "contract IUniswapV2Router02",
          "name": "uniswapRouter",
          "type": "address"
        },
        {
          "internalType": "address",
          "name": "wethAddress",
          "type": "address"
        }
      ],
      "stateMutability": "nonpayable",
      "type": "constructor"
    },
    {
      "anonymous": false,
      "inputs": [
        {
          "indexed": true,
          "internalType": "address",
          "name": "previousOwner",
          "type": "address"
        },
        {
          "indexed": true,
          "internalType": "address",
          "name": "newOwner",
          "type": "address"
        }
      ],
      "name": "OwnershipTransferred",
      "type": "event"
    },
    {
      "anonymous": false,
      "inputs": [
        {
          "indexed": false,
          "internalType": "address",
          "name": "fromAsset",
          "type": "address"
        },
        {
          "indexed": false,
          "internalType": "address",
          "name": "toAsset",
          "type": "address"
        },
        {
          "indexed": false,
          "internalType": "uint256",
          "name": "fromAmount",
          "type": "uint256"
        },
        {
          "indexed": false,
          "internalType": "uint256",
          "name": "receivedAmount",
          "type": "uint256"
        }
      ],
      "name": "Swapped",
      "type": "event"
    },
    {
      "inputs": [],
      "name": "ADDRESSES_PROVIDER",
      "outputs": [
        {
          "internalType": "contract ILendingPoolAddressesProvider",
          "name": "",
          "type": "address"
        }
      ],
      "stateMutability": "view",
      "type": "function"
    },
    {
      "inputs": [],
      "name": "FLASHLOAN_PREMIUM_TOTAL",
      "outputs": [
        {
          "internalType": "uint256",
          "name": "",
          "type": "uint256"
        }
      ],
      "stateMutability": "view",
      "type": "function"
    },
    {
      "inputs": [],
      "name": "LENDING_POOL",
      "outputs": [
        {
          "internalType": "contract ILendingPool",
          "name": "",
          "type": "address"
        }
      ],
      "stateMutability": "view",
      "type": "function"
    },
    {
      "inputs": [],
      "name": "MAX_SLIPPAGE_PERCENT",
      "outputs": [
        {
          "internalType": "uint256",
          "name": "",
          "type": "uint256"
        }
      ],
      "stateMutability": "view",
      "type": "function"
    },
    {
      "inputs": [],
      "name": "ORACLE",
      "outputs": [
        {
          "internalType": "contract IPriceOracleGetter",
          "name": "",
          "type": "address"
        }
      ],
      "stateMutability": "view",
      "type": "function"
    },
    {
      "inputs": [],
      "name": "UNISWAP_ROUTER",
      "outputs": [
        {
          "internalType": "contract IUniswapV2Router02",
          "name": "",
          "type": "address"
        }
      ],
      "stateMutability": "view",
      "type": "function"
    },
    {
      "inputs": [],
      "name": "USD_ADDRESS",
      "outputs": [
        {
          "internalType": "address",
          "name": "",
          "type": "address"
        }
      ],
      "stateMutability": "view",
      "type": "function"
    },
    {
      "inputs": [],
      "name": "WETH_ADDRESS",
      "outputs": [
        {
          "internalType": "address",
          "name": "",
          "type": "address"
        }
      ],
      "stateMutability": "view",
      "type": "function"
    },
    {
      "inputs": [
        {
          "internalType": "address[]",
          "name": "assets",
          "type": "address[]"
        },
        {
          "internalType": "uint256[]",
          "name": "amounts",
          "type": "uint256[]"
        },
        {
          "internalType": "uint256[]",
          "name": "premiums",
          "type": "uint256[]"
        },
        {
          "internalType": "address",
          "name": "initiator",
          "type": "address"
        },
        {
          "internalType": "bytes",
          "name": "params",
          "type": "bytes"
        }
      ],
      "name": "executeOperation",
      "outputs": [
        {
          "internalType": "bool",
          "name": "",
          "type": "bool"
        }
      ],
      "stateMutability": "nonpayable",
      "type": "function"
    },
    {
      "inputs": [
        {
          "internalType": "uint256",
          "name": "amountOut",
          "type": "uint256"
        },
        {
          "internalType": "address",
          "name": "reserveIn",
          "type": "address"
        },
        {
          "internalType": "address",
          "name": "reserveOut",
          "type": "address"
        }
      ],
      "name": "getAmountsIn",
      "outputs": [
        {
          "internalType": "uint256",
          "name": "",
          "type": "uint256"
        },
        {
          "internalType": "uint256",
          "name": "",
          "type": "uint256"
        },
        {
          "internalType": "uint256",
          "name": "",
          "type": "uint256"
        },
        {
          "internalType": "uint256",
          "name": "",
          "type": "uint256"
        },
        {
          "internalType": "address[]",
          "name": "",
          "type": "address[]"
        }
      ],
      "stateMutability": "view",
      "type": "function"
    },
    {
      "inputs": [
        {
          "internalType": "uint256",
          "name": "amountIn",
          "type": "uint256"
        },
        {
          "internalType": "address",
          "name": "reserveIn",
          "type": "address"
        },
        {
          "internalType": "address",
          "name": "reserveOut",
          "type": "address"
        }
      ],
      "name": "getAmountsOut",
      "outputs": [
        {
          "internalType": "uint256",
          "name": "",
          "type": "uint256"
        },
        {
          "internalType": "uint256",
          "name": "",
          "type": "uint256"
        },
        {
          "internalType": "uint256",
          "name": "",
          "type": "uint256"
        },
        {
          "internalType": "uint256",
          "name": "",
          "type": "uint256"
        },
        {
          "internalType": "address[]",
          "name": "",
          "type": "address[]"
        }
      ],
      "stateMutability": "view",
      "type": "function"
    },
    {
      "inputs": [],
      "name": "owner",
      "outputs": [
        {
          "internalType": "address",
          "name": "",
          "type": "address"
        }
      ],
      "stateMutability": "view",
      "type": "function"
    },
    {
      "inputs": [],
      "name": "renounceOwnership",
      "outputs": [],
      "stateMutability": "nonpayable",
      "type": "function"
    },
    {
      "inputs": [
        {
          "internalType": "contract IERC20",
          "name": "token",
          "type": "address"
        }
      ],
      "name": "rescueTokens",
      "outputs": [],
      "stateMutability": "nonpayable",
      "type": "function"
    },
    {
      "inputs": [
        {
          "internalType": "address[]",
          "name": "assetToSwapFromList",
          "type": "address[]"
        },
        {
          "internalType": "address[]",
          "name": "assetToSwapToList",
          "type": "address[]"
        },
        {
          "internalType": "uint256[]",
          "name": "amountToSwapList",
          "type": "uint256[]"
        },
        {
          "internalType": "uint256[]",
          "name": "minAmountsToReceive",
          "type": "uint256[]"
        },
        {
          "components": [
            {
              "internalType": "uint256",
              "name": "amount",
              "type": "uint256"
            },
            {
              "internalType": "uint256",
              "name": "deadline",
              "type": "uint256"
            },
            {
              "internalType": "uint8",
              "name": "v",
              "type": "uint8"
            },
            {
              "internalType": "bytes32",
              "name": "r",
              "type": "bytes32"
            },
            {
              "internalType": "bytes32",
              "name": "s",
              "type": "bytes32"
            }
          ],
          "internalType": "struct IBaseUniswapAdapter.PermitSignature[]",
          "name": "permitParams",
          "type": "tuple[]"
        },
        {
          "internalType": "bool[]",
          "name": "useEthPath",
          "type": "bool[]"
        }
      ],
      "name": "swapAndDeposit",
      "outputs": [],
      "stateMutability": "nonpayable",
      "type": "function"
    },
    {
      "inputs": [
        {
          "internalType": "address",
          "name": "newOwner",
          "type": "address"
        }
      ],
      "name": "transferOwnership",
      "outputs": [],
      "stateMutability": "nonpayable",
      "type": "function"
    }
  ],
  "bytecode": "0x6101206040523480156200001257600080fd5b50604051620038b4380380620038b48339810160408190526200003591620001fd565b82828282806001600160a01b03166080816001600160a01b031660601b81525050806001600160a01b0316630261bf8b6040518163ffffffff1660e01b815260040160206040518083038186803b1580156200009057600080fd5b505afa158015620000a5573d6000803e3d6000fd5b505050506040513d601f19601f82011682018060405250810190620000cb9190620001d7565b60601b6001600160601b03191660a052506000620000e8620001d3565b600080546001600160a01b0319166001600160a01b0383169081178255604051929350917f8be0079c531659141344cd1fd0a4f28419497f9722a3daafe3b4186f6b6457e0908290a350826001600160a01b031663fca513a86040518163ffffffff1660e01b815260040160206040518083038186803b1580156200016c57600080fd5b505afa15801562000181573d6000803e3d6000fd5b505050506040513d601f19601f82011682018060405250810190620001a79190620001d7565b6001600160601b0319606091821b811660e05292811b8316610100521b1660c052506200026992505050565b3390565b600060208284031215620001e9578081fd5b8151620001f68162000250565b9392505050565b60008060006060848603121562000212578182fd5b83516200021f8162000250565b6020850151909350620002328162000250565b6040850151909250620002458162000250565b809150509250925092565b6001600160a01b03811681146200026657600080fd5b50565b60805160601c60a05160601c60c05160601c60e05160601c6101005160601c61357a6200033a60003980610b4052806111f752806112eb528061197452806119a95280611b3d52806120e352806121d4525080610382528061233e52508061032f52806110d1528061110e52806111785280611a275280611fbd5280611ffa528061206452508061043f528061071552806109e75280610a415280610a775280610d9b5280610dd75280610e185280610ed25280610f0e52806116f5528061183a525080610353525061357a6000f3fe608060405234801561001057600080fd5b50600436106100df5760003560e01c8063920f5c8411610087578063920f5c84146101545780639d1211bf14610174578063b4dcfc771461017c578063baf7fa9914610184578063cdf58cd6146101a8578063d51c9ed7146101bb578063d8264920146101ce578063f2fde38b146101d6576100df565b8062ae3bf8146100e4578063040141e5146100f95780630542975c14610117578063074b2e431461011f57806332e4b2861461013457806338013f021461013c578063715018a6146101445780638da5cb5b1461014c575b600080fd5b6100f76100f23660046129d5565b6101e9565b005b61010161032d565b60405161010e919061300f565b60405180910390f35b610101610351565b610127610375565b60405161010e919061340a565b61012761037a565b610101610380565b6100f76103a4565b610101610423565b610167610162366004612b27565b610432565b60405161010e9190613134565b6101016106fb565b610101610713565b610197610192366004612f53565b610737565b60405161010e959493929190613468565b6101976101b6366004612f53565b61077d565b6100f76101c93660046129f1565b610798565b610101610b3e565b6100f76101e43660046129d5565b610b62565b6101f1610c18565b6000546001600160a01b039081169116146102275760405162461bcd60e51b815260040161021e906132d1565b60405180910390fd5b806001600160a01b031663a9059cbb61023e610423565b6040516370a0823160e01b81526001600160a01b038516906370a082319061026a90309060040161300f565b60206040518083038186803b15801561028257600080fd5b505afa158015610296573d6000803e3d6000fd5b505050506040513d601f19601f820116820180604052508101906102ba9190612f3b565b6040518363ffffffff1660e01b81526004016102d79291906130cb565b602060405180830381600087803b1580156102f157600080fd5b505af1158015610305573d6000803e3d6000fd5b505050506040513d601f19601f820116820180604052508101906103299190612dcb565b5050565b7f000000000000000000000000000000000000000000000000000000000000000081565b7f000000000000000000000000000000000000000000000000000000000000000081565b600981565b610bb881565b7f000000000000000000000000000000000000000000000000000000000000000081565b6103ac610c18565b6000546001600160a01b039081169116146103d95760405162461bcd60e51b815260040161021e906132d1565b600080546040516001600160a01b03909116907f8be0079c531659141344cd1fd0a4f28419497f9722a3daafe3b4186f6b6457e0908390a3600080546001600160a01b0319169055565b6000546001600160a01b031690565b6000336001600160a01b037f0000000000000000000000000000000000000000000000000000000000000000161461047c5760405162461bcd60e51b815260040161021e90613172565b6104846125b9565b6104c384848080601f016020809104026020016040519081016040528093929190818152602001838380828437600092019190915250610c1c92505050565b8051519091508a1480156104db57506020810151518a145b80156104eb57506040810151518a145b80156104fc5750606081015151518a145b80156105105750606081015160200151518a145b80156105245750606081015160400151518a145b801561053757506060808201510151518a145b801561054b5750606081015160800151518a145b801561055b57506080810151518a145b6105775760405162461bcd60e51b815260040161021e90613306565b60005b8a8110156106e9576106e18c8c8381811061059157fe5b90506020020160208101906105a691906129d5565b83518051849081106105b457fe5b60200260200101518c8c858181106105c857fe5b905060200201358b8b868181106105db57fe5b905060200201358a876020015187815181106105f357fe5b60200260200101518860400151888151811061060b57fe5b60200260200101516040518060a001604052808b60600151600001518b8151811061063257fe5b602002602001015181526020018b60600151602001518b8151811061065357fe5b602002602001015181526020018b60600151604001518b8151811061067457fe5b602002602001015160ff1681526020018b60600151606001518b8151811061069857fe5b602002602001015181526020018b60600151608001518b815181106106b957fe5b60200260200101518152508a608001518a815181106106d457fe5b6020026020010151610ca5565b60010161057a565b5060019b9a5050505050505050505050565b7310f7fc1f91ba351f9c629c5947ad69bd03c05b9681565b7f000000000000000000000000000000000000000000000000000000000000000081565b60008060008060606107476125ee565b61075288888b610f3f565b8051602082015160408301516060840151608090940151929d919c509a509198509650945050505050565b600080600080606061078d6125ee565b61075288888b6114fc565b8a891480156107a657508a87145b80156107b157508a85145b80156107bc57508a83145b6107d85760405162461bcd60e51b815260040161021e90613306565b6107e061261d565b600081525b80518c1115610b2f5761081b8d8d836000015181811061080157fe5b905060200201602081019061081691906129d5565b6116d6565b60e001516001600160a01b0316608082018190526040516370a0823160e01b81526370a082319061085090339060040161300f565b60206040518083038186803b15801561086857600080fd5b505afa15801561087c573d6000803e3d6000fd5b505050506040513d601f19601f820116820180604052508101906108a09190612f3b565b6020820181905281518a908a908181106108b657fe5b90506020020135116108de57888882600001518181106108d257fe5b905060200201356108e4565b80602001515b60408201528051610947908e908e908181106108fc57fe5b905060200201602081019061091191906129d5565b82608001513384604001518989876000015181811061092c57fe5b905060a002018036038101906109429190612de7565b611781565b6109da8d8d836000015181811061095a57fe5b905060200201602081019061096f91906129d5565b8c8c846000015181811061097f57fe5b905060200201602081019061099491906129d5565b83604001518a8a86600001518181106109a957fe5b90506020020135878787600001518181106109c057fe5b90506020020160208101906109d59190612daf565b6118cd565b60608201528051610a3c907f0000000000000000000000000000000000000000000000000000000000000000906000908e908e90818110610a1757fe5b9050602002016020810190610a2c91906129d5565b6001600160a01b03169190611c64565b610a757f000000000000000000000000000000000000000000000000000000000000000082606001518d8d8560000151818110610a1757fe5b7f00000000000000000000000000000000000000000000000000000000000000006001600160a01b031663e8eda9df8c8c8460000151818110610ab457fe5b9050602002016020810190610ac991906129d5565b83606001513360006040518563ffffffff1660e01b8152600401610af09493929190613107565b600060405180830381600087803b158015610b0a57600080fd5b505af1158015610b1e573d6000803e3d6000fd5b505082516001018352506107e59050565b50505050505050505050505050565b7f000000000000000000000000000000000000000000000000000000000000000081565b610b6a610c18565b6000546001600160a01b03908116911614610b975760405162461bcd60e51b815260040161021e906132d1565b6001600160a01b038116610bbd5760405162461bcd60e51b815260040161021e906131a9565b600080546040516001600160a01b03808516939216917f8be0079c531659141344cd1fd0a4f28419497f9722a3daafe3b4186f6b6457e091a3600080546001600160a01b0319166001600160a01b0392909216919091179055565b3390565b610c246125b9565b60608060608060608060608060608a806020019051810190610c469190612c23565b6040805160a080820183529a815260208082019a909a52808201989098528051998a018152958952968801939093529286015260608086019290925260808086019190915290820193909352918201529b9a5050505050505050505050565b610cad612655565b610cb68a6116d6565b60e001516001600160a01b03168082526040516370a0823160e01b81526370a0823190610ce790899060040161300f565b60206040518083038186803b158015610cff57600080fd5b505afa158015610d13573d6000803e3d6000fd5b505050506040513d601f19601f82011682018060405250810190610d379190612f3b565b6020820152838015610d58575060208101518890610d559089611d63565b11155b610d625787610d71565b6020810151610d719088611d63565b60408201819052610d87908b908b9088866118cd565b6060820152610dc16001600160a01b038a167f00000000000000000000000000000000000000000000000000000000000000006000611c64565b6060810151610dfc906001600160a01b038b16907f000000000000000000000000000000000000000000000000000000000000000090611c64565b606081015160405163e8eda9df60e01b81526001600160a01b037f0000000000000000000000000000000000000000000000000000000000000000169163e8eda9df91610e52918d918b90600090600401613107565b600060405180830381600087803b158015610e6c57600080fd5b505af1158015610e80573d6000803e3d6000fd5b50505050610e978789611da590919063ffffffff16565b60808201526040810151610eab9088611da5565b60a082018190528151610ec3918c9190899087611781565b610ef86001600160a01b038b167f00000000000000000000000000000000000000000000000000000000000000006000611c64565b6080810151610f33906001600160a01b038c16907f000000000000000000000000000000000000000000000000000000000000000090611c64565b50505050505050505050565b610f476125ee565b6000610f6a610f63612710610f5d866009611dca565b90611e04565b8490611d63565b9050836001600160a01b0316856001600160a01b03161415611036576000610f9186611e46565b60408051600180825281830190925291925060609190602080830190803683370190505090508681600081518110610fc557fe5b6001600160a01b039092166020928302919091018201526040805160a0810190915284815290810161100387610f5d87670de0b6b3a7640000611dca565b8152602001611013898886611ec2565b8152602001611023898686611ec2565b81526020018281525093505050506114f5565b6040805160028082526060808301845292602083019080368337019050509050858160008151811061106457fe5b60200260200101906001600160a01b031690816001600160a01b031681525050848160018151811061109257fe5b6001600160a01b0392909216602092830291909101820152604080516003808252608082019092526060928392839291820183803683370190505090507f00000000000000000000000000000000000000000000000000000000000000006001600160a01b0316896001600160a01b03161415801561114357507f00000000000000000000000000000000000000000000000000000000000000006001600160a01b0316886001600160a01b031614155b156112af57888160008151811061115657fe5b60200260200101906001600160a01b031690816001600160a01b0316815250507f0000000000000000000000000000000000000000000000000000000000000000816001815181106111a457fe5b60200260200101906001600160a01b031690816001600160a01b03168152505087816002815181106111d257fe5b6001600160a01b03928316602091820292909201015260405163d06ca61f60e01b81527f00000000000000000000000000000000000000000000000000000000000000009091169063d06ca61f906112309088908590600401613413565b60006040518083038186803b15801561124857600080fd5b505afa92505050801561127d57506040513d6000823e601f3d908101601f1916820160405261127a9190810190612d7d565b60015b6112a7576040805160038082526080820190925290602082016060803683370190505091506112aa565b91505b6112d1565b6040805160038082526080820190925290602082016060803683370190505091505b60405163d06ca61f60e01b81526000906001600160a01b037f0000000000000000000000000000000000000000000000000000000000000000169063d06ca61f906113229089908990600401613413565b60006040518083038186803b15801561133a57600080fd5b505afa92505050801561136f57506040513d6000823e601f3d908101601f1916820160405261136c9190810190612d7d565b60015b6113af576040805160028082526060820183529091602083019080368337019050509350826002815181106113a057fe5b60200260200101519050611415565b809450846001815181106113bf57fe5b6020026020010151846002815181106113d457fe5b6020026020010151116113fb57846001815181106113ee57fe5b6020026020010151611411565b8360028151811061140857fe5b60200260200101515b9150505b60006114208b611e46565b9050600061142d8b611e46565b9050600061146261144285600a86900a611dca565b610f5d600a85900a61145c8d670de0b6b3a7640000611dca565b90611dca565b90506040518060a001604052808581526020018281526020016114868f8e87611ec2565b81526020016114968e8786611ec2565b815260200185156114c957886001815181106114ae57fe5b602002602001015186146114c257866114c4565b895b6114e7565b60408051600280825260608201835290916020830190803683375050505b905299505050505050505050505b9392505050565b6115046125ee565b826001600160a01b0316846001600160a01b031614156115da57600061153b611534612710610f5d866009611dca565b8490611da5565b9050600061154886611e46565b6040805160018082528183019092529192506060919060208083019080368337019050509050868160008151811061157c57fe5b6001600160a01b039092166020928302919091018201526040805160a081019091528481529081016115ba85610f5d89670de0b6b3a7640000611dca565b81526020016115ca898686611ec2565b8152602001611023898886611ec2565b6060806115e8868686611f1b565b91509150600061164261161f612710610f5d60098760008151811061160957fe5b6020026020010151611dca90919063ffffffff16565b8460008151811061162c57fe5b6020026020010151611da590919063ffffffff16565b9050600061164f88611e46565b9050600061165c88611e46565b9050600061168b61167185600a85900a611dca565b610f5d600a86900a61145c8c670de0b6b3a7640000611dca565b90506040518060a001604052808581526020018281526020016116af8c8787611ec2565b81526020016116bf8b8b86611ec2565b815260200195909552509298975050505050505050565b6116de612694565b6040516335ea6a7560e01b81526001600160a01b037f000000000000000000000000000000000000000000000000000000000000000016906335ea6a759061172a90859060040161300f565b6101806040518083038186803b15801561174357600080fd5b505afa158015611757573d6000803e3d6000fd5b505050506040513d601f19601f8201168201806040525081019061177b9190612e40565b92915050565b61178a816122d8565b1561180e57836001600160a01b031663d505accf8430846000015185602001518660400151876060015188608001516040518863ffffffff1660e01b81526004016117db979695949392919061308a565b600060405180830381600087803b1580156117f557600080fd5b505af1158015611809573d6000803e3d6000fd5b505050505b6118236001600160a01b0385168430856122fd565b604051631a4ca37b60e21b81526001600160a01b037f000000000000000000000000000000000000000000000000000000000000000016906369328dec90611873908890869030906004016130e4565b602060405180830381600087803b15801561188d57600080fd5b505af11580156118a1573d6000803e3d6000fd5b505050506040513d601f19601f820116820180604052508101906118c59190612f3b565b505050505050565b6000806118d987611e46565b905060006118e687611e46565b905060006118f389612324565b9050600061190089612324565b90506000611944611915612710610bb8611d63565b61193e61192685600a8a900a611dca565b610f5d61193788600a8b900a611dca565b8e90611dca565b906123c3565b90508781106119655760405162461bcd60e51b815260040161021e9061325b565b61199a6001600160a01b038c167f00000000000000000000000000000000000000000000000000000000000000006000611c64565b6119ce6001600160a01b038c167f00000000000000000000000000000000000000000000000000000000000000008b611c64565b60608715611aa6576040805160038082526080820190925290602082016060803683370190505090508b81600081518110611a0557fe5b60200260200101906001600160a01b031690816001600160a01b0316815250507f000000000000000000000000000000000000000000000000000000000000000081600181518110611a5357fe5b60200260200101906001600160a01b031690816001600160a01b0316815250508a81600281518110611a8157fe5b60200260200101906001600160a01b031690816001600160a01b031681525050611b23565b60408051600280825260608201835290916020830190803683370190505090508b81600081518110611ad457fe5b60200260200101906001600160a01b031690816001600160a01b0316815250508a81600181518110611b0257fe5b60200260200101906001600160a01b031690816001600160a01b0316815250505b6040516338ed173960e01b81526060906001600160a01b037f000000000000000000000000000000000000000000000000000000000000000016906338ed173990611b7a908e908e9087903090429060040161342c565b600060405180830381600087803b158015611b9457600080fd5b505af1158015611ba8573d6000803e3d6000fd5b505050506040513d6000823e601f3d908101601f19168201604052611bd09190810190612d7d565b90507fa078c4190abe07940190effc1846be0ccf03ad6007bc9e93f9697d0b460befbb8d8d83600081518110611c0257fe5b602002602001015184600186510381518110611c1a57fe5b6020026020010151604051611c329493929190613061565b60405180910390a180600182510381518110611c4a57fe5b602002602001015197505050505050505095945050505050565b801580611cec5750604051636eb1769f60e11b81526001600160a01b0384169063dd62ed3e90611c9a9030908690600401613023565b60206040518083038186803b158015611cb257600080fd5b505afa158015611cc6573d6000803e3d6000fd5b505050506040513d601f19601f82011682018060405250810190611cea9190612f3b565b155b611d085760405162461bcd60e51b815260040161021e9061337d565b611d5e8363095ea7b360e01b8484604051602401611d279291906130cb565b60408051601f198184030181529190526020810180516001600160e01b03166001600160e01b031990931692909217909152612435565b505050565b60006114f583836040518060400160405280601e81526020017f536166654d6174683a207375627472616374696f6e206f766572666c6f77000081525061251a565b6000828201838110156114f55760405162461bcd60e51b815260040161021e906131ef565b600082611dd95750600061177b565b82820282848281611de657fe5b04146114f55760405162461bcd60e51b815260040161021e90613290565b60006114f583836040518060400160405280601a81526020017f536166654d6174683a206469766973696f6e206279207a65726f000000000000815250612546565b6000816001600160a01b031663313ce5676040518163ffffffff1660e01b815260040160206040518083038186803b158015611e8157600080fd5b505afa158015611e95573d6000803e3d6000fd5b505050506040513d601f19601f82011682018060405250810190611eb99190612f94565b60ff1692915050565b600080611ee27310f7fc1f91ba351f9c629c5947ad69bd03c05b96612324565b90506000611eef86612324565b9050611f11670de0b6b3a7640000610f5d8461145c600a89900a838b88611dca565b9695505050505050565b6040805160028082526060828101909352829182918160200160208202803683370190505090508581600081518110611f5057fe5b60200260200101906001600160a01b031690816001600160a01b0316815250508481600181518110611f7e57fe5b6001600160a01b0392909216602092830291909101820152604080516003808252608082019092526060928392839291820183803683370190505090507f00000000000000000000000000000000000000000000000000000000000000006001600160a01b0316896001600160a01b03161415801561202f57507f00000000000000000000000000000000000000000000000000000000000000006001600160a01b0316886001600160a01b031614155b1561219b57888160008151811061204257fe5b60200260200101906001600160a01b031690816001600160a01b0316815250507f00000000000000000000000000000000000000000000000000000000000000008160018151811061209057fe5b60200260200101906001600160a01b031690816001600160a01b03168152505087816002815181106120be57fe5b6001600160a01b0392831660209182029290920101526040516307c0329d60e21b81527f000000000000000000000000000000000000000000000000000000000000000090911690631f00ca749061211c908a908590600401613413565b60006040518083038186803b15801561213457600080fd5b505afa92505050801561216957506040513d6000823e601f3d908101601f191682016040526121669190810190612d7d565b60015b61219357604080516003808252608082019092529060208201606080368337019050509150612196565b91505b6121bd565b6040805160038082526080820190925290602082016060803683370190505091505b6040516307c0329d60e21b81526001600160a01b037f00000000000000000000000000000000000000000000000000000000000000001690631f00ca749061220b908a908890600401613413565b60006040518083038186803b15801561222357600080fd5b505afa92505050801561225857506040513d6000823e601f3d908101601f191682016040526122559190810190612d7d565b60015b6122695790945092506122d0915050565b8093508360008151811061227957fe5b60200260200101518360008151811061228e57fe5b60200260200101511080156122b85750826000815181106122ab57fe5b6020026020010151600014155b6122c35783856122c6565b82825b9650965050505050505b935093915050565b6000816040015160ff1682602001511480156122f657506020820151155b1592915050565b61231e846323b872dd60e01b858585604051602401611d279392919061303d565b50505050565b60405163b3596f0760e01b81526000906001600160a01b037f0000000000000000000000000000000000000000000000000000000000000000169063b3596f079061237390859060040161300f565b60206040518083038186803b15801561238b57600080fd5b505afa15801561239f573d6000803e3d6000fd5b505050506040513d601f19601f8201168201806040525081019061177b9190612f3b565b60008215806123d0575081155b156123dd5750600061177b565b8161138819816123e957fe5b0483111560405180604001604052806002815260200161068760f31b815250906124265760405162461bcd60e51b815260040161021e919061313f565b50506127109102611388010490565b612447826001600160a01b031661257d565b6124635760405162461bcd60e51b815260040161021e906133d3565b60006060836001600160a01b03168360405161247f9190612ff3565b6000604051808303816000865af19150503d80600081146124bc576040519150601f19603f3d011682016040523d82523d6000602084013e6124c1565b606091505b5091509150816124e35760405162461bcd60e51b815260040161021e90613226565b80511561231e57808060200190518101906124fe9190612dcb565b61231e5760405162461bcd60e51b815260040161021e90613333565b6000818484111561253e5760405162461bcd60e51b815260040161021e919061313f565b505050900390565b600081836125675760405162461bcd60e51b815260040161021e919061313f565b50600083858161257357fe5b0495945050505050565b6000813f7fc5d2460186f7233c927e7db2dcc703c0e500b653ca82273b7bfad8045d85a4708181148015906125b157508115155b949350505050565b6040518060a001604052806060815260200160608152602001606081526020016125e16126ff565b8152602001606081525090565b6040518060a0016040528060008152602001600081526020016000815260200160008152602001606081525090565b6040518060a001604052806000815260200160008152602001600081526020016000815260200160006001600160a01b031681525090565b6040518060c0016040528060006001600160a01b0316815260200160008152602001600081526020016000815260200160008152602001600081525090565b6040518061018001604052806126a861272e565b815260006020820181905260408201819052606082018190526080820181905260a0820181905260c0820181905260e082018190526101008201819052610120820181905261014082018190526101609091015290565b6040518060a0016040528060608152602001606081526020016060815260200160608152602001606081525090565b6040518060200160405280600081525090565b805161177b8161350f565b60008083601f84011261275d578182fd5b5081356001600160401b03811115612773578182fd5b602083019150836020808302850101111561278d57600080fd5b9250929050565b600082601f8301126127a4578081fd5b81516127b76127b2826134c4565b61349e565b8181529150602080830190848101818402860182018710156127d857600080fd5b60005b848110156128005781516127ee8161350f565b845292820192908201906001016127db565b505050505092915050565b600082601f83011261281b578081fd5b81516128296127b2826134c4565b81815291506020808301908481018184028601820187101561284a57600080fd5b60005b8481101561280057815161286081613527565b8452928201929082019060010161284d565b600082601f830112612882578081fd5b81516128906127b2826134c4565b8181529150602080830190848101818402860182018710156128b157600080fd5b60005b84811015612800578151845292820192908201906001016128b4565b60008083601f8401126128e1578182fd5b5081356001600160401b038111156128f7578182fd5b60208301915083602060a08302850101111561278d57600080fd5b600082601f830112612922578081fd5b81516129306127b2826134c4565b81815291506020808301908481018184028601820187101561295157600080fd5b60005b8481101561280057815161296781613535565b84529282019290820190600101612954565b60006020828403121561298a578081fd5b612994602061349e565b9151825250919050565b80516001600160801b038116811461177b57600080fd5b805164ffffffffff8116811461177b57600080fd5b805161177b81613535565b6000602082840312156129e6578081fd5b81356114f58161350f565b60008060008060008060008060008060008060c08d8f031215612a12578788fd5b6001600160401b038d351115612a26578788fd5b612a338e8e358f0161274c565b909c509a506001600160401b0360208e01351115612a4f578788fd5b612a5f8e60208f01358f0161274c565b909a5098506001600160401b0360408e01351115612a7b578788fd5b612a8b8e60408f01358f0161274c565b90985096506001600160401b0360608e01351115612aa7578586fd5b612ab78e60608f01358f0161274c565b90965094506001600160401b0360808e01351115612ad3578384fd5b612ae38e60808f01358f016128d0565b90945092506001600160401b0360a08e01351115612aff578081fd5b612b0f8e60a08f01358f0161274c565b81935080925050509295989b509295989b509295989b565b600080600080600080600080600060a08a8c031215612b44578283fd5b89356001600160401b0380821115612b5a578485fd5b612b668d838e0161274c565b909b50995060208c0135915080821115612b7e578485fd5b612b8a8d838e0161274c565b909950975060408c0135915080821115612ba2578485fd5b612bae8d838e0161274c565b909750955060608c01359150612bc38261350f565b90935060808b01359080821115612bd8578384fd5b818c0191508c601f830112612beb578384fd5b813581811115612bf9578485fd5b8d6020828501011115612c0a578485fd5b6020830194508093505050509295985092959850929598565b60008060008060008060008060006101208a8c031215612c41578283fd5b89516001600160401b0380821115612c57578485fd5b612c638d838e01612794565b9a5060208c0151915080821115612c78578485fd5b612c848d838e01612872565b995060408c0151915080821115612c99578485fd5b612ca58d838e0161280b565b985060608c0151915080821115612cba578485fd5b612cc68d838e01612872565b975060808c0151915080821115612cdb578485fd5b612ce78d838e01612872565b965060a08c0151915080821115612cfc578485fd5b612d088d838e01612912565b955060c08c0151915080821115612d1d578485fd5b612d298d838e01612872565b945060e08c0151915080821115612d3e578384fd5b612d4a8d838e01612872565b93506101008c0151915080821115612d60578283fd5b50612d6d8c828d0161280b565b9150509295985092959850929598565b600060208284031215612d8e578081fd5b81516001600160401b03811115612da3578182fd5b6125b184828501612872565b600060208284031215612dc0578081fd5b81356114f581613527565b600060208284031215612ddc578081fd5b81516114f581613527565b600060a08284031215612df8578081fd5b612e0260a061349e565b82358152602083013560208201526040830135612e1e81613535565b6040820152606083810135908201526080928301359281019290925250919050565b6000610180808385031215612e53578182fd5b612e5c8161349e565b9050612e688484612979565b8152612e77846020850161299e565b6020820152612e89846040850161299e565b6040820152612e9b846060850161299e565b6060820152612ead846080850161299e565b6080820152612ebf8460a0850161299e565b60a0820152612ed18460c085016129b5565b60c0820152612ee38460e08501612741565b60e0820152610100612ef785828601612741565b90820152610120612f0a85858301612741565b90820152610140612f1d85858301612741565b90820152610160612f30858583016129ca565b908201529392505050565b600060208284031215612f4c578081fd5b5051919050565b600080600060608486031215612f67578081fd5b833592506020840135612f798161350f565b91506040840135612f898161350f565b809150509250925092565b600060208284031215612fa5578081fd5b81516114f581613535565b6000815180845260208085019450808401835b83811015612fe85781516001600160a01b031687529582019590820190600101612fc3565b509495945050505050565b600082516130058184602087016134e3565b9190910192915050565b6001600160a01b0391909116815260200190565b6001600160a01b0392831681529116602082015260400190565b6001600160a01b039384168152919092166020820152604081019190915260600190565b6001600160a01b0394851681529290931660208301526040820152606081019190915260800190565b6001600160a01b0397881681529590961660208601526040850193909352606084019190915260ff16608083015260a082015260c081019190915260e00190565b6001600160a01b03929092168252602082015260400190565b6001600160a01b0393841681526020810192909252909116604082015260600190565b6001600160a01b03948516815260208101939093529216604082015261ffff909116606082015260800190565b901515815260200190565b600060208252825180602084015261315e8160408501602087016134e3565b601f01601f19169190910160400192915050565b6020808252601b908201527f43414c4c45525f4d5553545f42455f4c454e44494e475f504f4f4c0000000000604082015260600190565b60208082526026908201527f4f776e61626c653a206e6577206f776e657220697320746865207a65726f206160408201526564647265737360d01b606082015260800190565b6020808252601b908201527f536166654d6174683a206164646974696f6e206f766572666c6f770000000000604082015260600190565b6020808252818101527f5361666545524332303a206c6f772d6c6576656c2063616c6c206661696c6564604082015260600190565b6020808252818101527f6d696e416d6f756e744f757420657863656564206d617820736c697070616765604082015260600190565b60208082526021908201527f536166654d6174683a206d756c7469706c69636174696f6e206f766572666c6f6040820152607760f81b606082015260800190565b6020808252818101527f4f776e61626c653a2063616c6c6572206973206e6f7420746865206f776e6572604082015260600190565b602080825260139082015272494e434f4e53495354454e545f504152414d5360681b604082015260600190565b6020808252602a908201527f5361666545524332303a204552433230206f7065726174696f6e20646964206e6040820152691bdd081cdd58d8d9595960b21b606082015260800190565b60208082526036908201527f5361666545524332303a20617070726f76652066726f6d206e6f6e2d7a65726f60408201527520746f206e6f6e2d7a65726f20616c6c6f77616e636560501b606082015260800190565b6020808252601f908201527f5361666545524332303a2063616c6c20746f206e6f6e2d636f6e747261637400604082015260600190565b90815260200190565b6000838252604060208301526125b16040830184612fb0565b600086825285602083015260a0604083015261344b60a0830186612fb0565b6001600160a01b0394909416606083015250608001529392505050565b600086825285602083015284604083015283606083015260a0608083015261349360a0830184612fb0565b979650505050505050565b6040518181016001600160401b03811182821017156134bc57600080fd5b604052919050565b60006001600160401b038211156134d9578081fd5b5060209081020190565b60005b838110156134fe5781810151838201526020016134e6565b8381111561231e5750506000910152565b6001600160a01b038116811461352457600080fd5b50565b801515811461352457600080fd5b60ff8116811461352457600080fdfea26469706673582212206ed737828531e767c1e2f7108b42a94fd543feae5f445a8dc91a2079e9d94e7c64736f6c634300060c0033",
  "linkReferences": {},
  "deployedLinkReferences": {}
}